:020000040800F2
:100000009812002475030008815D0008C15C000897
:10001000795D000849080008297500080000000003
:10002000000000000000000000000000196300084C
:100030006910000800000000895D000821630008C5
:100040009303000893030008930300089303000838
:100050009303000893030008930300089303000828
:10006000311200083912000841120008B90B0008CB
:10007000C90B0008D90B0008E90B0008F90B0008B0
:10008000090C0008190C00089303000893030008EA
:100090009303000893030008930300084912000823
:1000A00093030008930300089303000893030008D8
:1000B00093030008930300089303000893030008C8
:1000C00093030008930300089303000893030008B8
:1000D00093030008F97400089303000809750008E9
:1000E0009303000893030008000000009303000836
:1000F000930300089303000893030008290C0008E9
:100100009303000893030008930300089303000877
:10011000F9640008930300089303000893030008A0
:100120009303000893030008930300089303000857
:100130009303000893030008930300089303000847
:1001400000000000000000000000000000000000AF
:10015000930300089303000893030008197500082F
:100160009303000893030008930300089303000817
:100170009303000893030008930300089303000807
:1001800093030008930300089303000893030008F7
:1001900093030008930300089303000893030008E7
:1001A00093030008930300089303000893030008D7
:1001B00093030008930300089303000893030008C7
:1001C00093030008930300089303000893030008B7
:1001D00093030008930300089303000893030008A7
:1001E0009303000893030008930300089303000897
:1001F0009303000893030008930300089303000887
:100200009303000893030008930300089303000876
:100210009303000893030008930300089303000866
:1002200093030008930300089303000800000000F4
:1002300093030008930300080000000093030008E4
:100240009303000893030008930300089303000836
:100250009303000893030008930300089303000826
:100260009303000893030008930300089303000816
:1002700093030008930300089303000800000000A4
:100280009303000893030008930300080000000094
:10029000000000009303000800F002F800F05BF893
:1002A00014A696E8000CB244B344DA4501D100F03C
:1002B00052F8BAE80F000FA696E83000A5EB040547
:1002C00004EB0607AAEB0704A7F101074FEA15158F
:1002D0004FEA3414A4F10104AC4201D300F03BF81E
:1002E00013F0010F18BFFB1A43F0010300F001F8EF
:1002F000DBE71847D07A0000F07A0000103A24BFFC
:1003000078C878C1FAD8520724BF30C830C144BF7A
:1003100004680C6070470000704700000023002450
:1003200000250026103A28BF78C1FBD8520728BF05
:1003300030C148BF0B6070471FB507F013FD00F0D8
:100340001FFA04000020002107F0F6FC401C60604A
:100350001FBD10B510BD00F0EEF91146FFF7ECFF20
:1003600007F0E6F800F01EFA03B4FFF7F2FF03BC53
:1003700000F060FA0A4880470A4880470A48004768
:10038000FEE7FEE7FEE7FEE7FEE7FEE7FEE7FEE745
:10039000FEE7FEE705480649064A074B704700009E
:1003A000711200080964000899020008980C0024E2
:1003B00098120024980E0024980E002453EA020C90
:1003C00000F069802DE9F04B4FF00006002B1FBFB5
:1003D000B3FA83F503FA05F424FA05F65E4012BF7A
:1003E0001643B2FA82F502FA05F4C5F120051EBFE4
:1003F00022FA05FC44EA0C04203556EA044C4FEA84
:10040000144418BF641C4FF000084FF000099042DC
:1004100071EB030C39D3002919BFB1FA81F701FA46
:1004200007F6B0FA80F700FA07F6C7F120071EBFFB
:1004300020FA07FC46EA0C062037B6FBF4FCA7EBD3
:100440000507103F07F01F0BCBF120062CFA06F62C
:100450000CFA0BFB44BFB3460026202FA4BF5E4618
:100460004FF0000B5BEA060C08BF4FF0010B19EBD5
:100470000B0948EB0608ABFB027C06FB02CC0BFB2E
:1004800003CCC01B71EB0C01C1E70B460246414691
:100490004846BDE8F08B13B5084318BF4FF0FF3056
:1004A0000146AFF30080BDE81C40704770B50646BA
:1004B00000F078F80468054630460A22002100F072
:1004C00075F82C6070BD032A40F2308010F0030CE8
:1004D00000F0158011F8013BBCF1020F624498BF97
:1004E00011F801CB00F8013B38BF11F8013BA2F134
:1004F000040298BF00F801CB38BF00F8013B11F0AF
:10050000030300F08B80083AC0F0088051F8043BE8
:10051000083A51F804CBA0E80810F5E7121D5CBFBB
:1005200051F8043B40F8043BAFF30080D20724BFEE
:1005300011F8013B11F801CB48BF11F8012B24BF82
:1005400000F8013B00F801CB48BF00F8012B7047D1
:100550004FF0000200B5134694469646203922BF5C
:10056000A0E80C50A0E80C50B1F12001BFF4F7AFA7
:10057000090728BFA0E80C5048BF0CC05DF804EB89
:10058000890028BF40F8042B08BF704748BF20F8F7
:10059000022B11F0804F18BF00F8012B70477047F5
:1005A0007047704700487047180000242DE9F04755
:1005B00091460F4680460446002614F8015B2DB193
:1005C00000F062F80068405DC007F6D12B2D02D024
:1005D0002D2D18D0641E4A463946204600F05CF89E
:1005E00027B13968A14201D1C7F800804FF0020459
:1005F00071050BD54042002803DDFFF7D3FF0460EF
:10060000A007BDE8F08746F48066E4E70028F8DA42
:10061000FFF7C8FF04606FF00040F2E710B5203A22
:10062000C0F00B80B1E81850A0E81850B1E818509D
:10063000A0E81850203ABFF4F5AF5FEA027C24BF6F
:10064000B1E81850A0E8185044BF18C918C0BDE858
:1006500010405FEA827C24BF51F8043B40F8043B21
:1006600008BF7047D20728BF31F8023B48BF11F8D6
:10067000012B28BF20F8023B48BF00F8012B704730
:10068000004870471800002410B500F079F8001DEC
:1006900010BD00BFA57600002DE9F05F824615462B
:1006A0008B4600270AF10104B9460078302801D0B2
:1006B0009DB113E014F8010B0127782803D05828C6
:1006C00001D045B10AE00DB1102D07D1002714F873
:1006D000010B102502E0082500E00A250026B0469F
:1006E0000EE005FB080005FB06F101271FFA80F864
:1006F00001EB1046B6F5803F00D3B94614F8010B64
:10070000294600F041F80028EBDABBF1000F05D0D4
:100710000FB1641E00E05446CBF80040B9F1000F61
:1007200006D0FFF73FFF02210160C81EBDE8F09F21
:1007300048EA0640FAE77546FFF7A2FFAE46050015
:100740006946534620F00700854618B020B5FFF7EC
:1007500021FEBDE820404FF000064FF000074FF0AB
:1007600000084FF0000BAC46ACE8C009ACE8C0098B
:10077000ACE8C009ACE8C00921F007018D4670471C
:1007800000487047380000243A2800D2303820F062
:100790002002412A01D3A2F13700884201D34FF051
:1007A000FF30704710B50446AFF300802046BDE827
:1007B0001040FFF7D9BD000030B44FF0013C50F8B5
:1007C000042BCCFA52F451F8043BD51A20D1FCB9D1
:1007D00050F8042BCCFA52F451F8043BD51A17D137
:1007E000B4B950F8042BCCFA52F451F8043BD51AA2
:1007F0000ED16CB950F8042BCCFA52F451F8043BEA
:10080000D51A05D1002CDAD030BC4FF0000070476B
:1008100029BAB1FA81F111F01801D1F12000844018
:10082000F2D1CA40CB4012F0FF0213F0FF0330BCFC
:10083000D01A704701491820ABBEFEE7260002001F
:100840007047000000000000FEE70000000000000C
:10085000F0B581B00278682A40DDF02A00F36880A4
:10086000A2F169002D2800F2C8800FF20601DFE82E
:1008700010F02F00C400C400C400C400C400C400B1
:10088000C400C400C400C400C400C400C400C40048
:10089000FB00DB00C400C400C400C400C400C400EA
:1008A000C400C400C400C400C400C400C400C40028
:1008B000C400C400C400C400C400C400C400C40018
:1008C000C400E700C400C400C400C400E10000BFCD
:1008D00001B0BDE8F04000F0E3BC00BFA2F125018B
:1008E0002E2900F24F80DFE801F019888888888877
:1008F000888888888888888888886D888888888893
:100900008888888888888888888888888888888867
:1009100088888888888877598B0000BF40789FED49
:10092000A21B00EE100A40F2D800C2F200403EE0E6
:10093000F12A00F0AB80FF2A00F0C080F22A5CD1DF
:1009400002295AD3A1F1010C4B42002405196A78FF
:10095000012A00F0F7801A19971C4ED0AF78012FAA
:1009600000F0F280D71C48D0EF78012F00F0EE8025
:10097000043242D02A790434012A00F0E880A445E8
:10098000E4D13AE0152A38D140789FED871B00EE7C
:10099000100A40F2D800C2F2004026E040789FEDF5
:1009A000841B00EE100A40F2AC00C2F20040B8EE28
:1009B000400B20EE010BB7EEC00B80ED010A01B039
:1009C000F0BD00BF40789FED781B00EE100A40F2AA
:1009D000D800C2F200401CE040789FED751B00EE8D
:1009E000100A40F2AC00C2F20040B8EE400B20EE1C
:1009F000010BB7EEC00B80ED000A01B0F0BD00BFE7
:100A000040789FED6B1B00EE100A40F2AC00C2F282
:100A10000040B8EE400B20EE010BB7EEC00B80EDAE
:100A2000020A01B0F0BD00BF012001B0BDE8F040F6
:100A300000F002BD002001B0BDE8F04000F0FCBCB9
:100A400001200021012205F033FC0A2000F010FBF8
:100A500002200021002205F02BFC0A2001B0BDE895
:100A6000F04000F005BB00BF0120102105F048FB5D
:100A70000A2000F0FDFA0220112105F041FB0A20B6
:100A800001B0BDE8F04000F0F3BA00BF40F27804D6
:100A90008A1EC2F20044FE2AA1F101026260ACD8B3
:100AA000411C40F21470C2F20040FFF70CFD01201F
:100AB000207002F05DFBE06001B0F0BD4178443988
:100AC00011292FD8DFE801F00A2E2E2E2E2E2E2EE1
:100AD0001C2E2E2E2E2E102E2E2200BF8079532853
:100AE00020D1022004E000BFC07953281AD1012090
:100AF0000A21032201B0BDE8F04005F0F9BB00BFB8
:100B0000807953280ED1012004E000BF00795328DA
:100B100008D102206FF00901032201B0BDE8F040C6
:100B200005F0E6BB01200021032205F0E1FB0A20CD
:100B300000F09EFA02200021032201B0BDE8F0403F
:100B400005F0D6BB013402E0023400E0033440F289
:100B50007805A21EC2F20045FE2AA4F101026A60D5
:100B60000DD840F2147300F1010CC2F200430646A6
:100B700018460F466146FFF7A6FC39463046631C0F
:100B8000CA1AAA60511EFE2906D8C11840F61400E0
:100B9000C2F20040FFF797FC0220288002F0E8FA3A
:100BA000E86001B0F0BD00BF7B14AE47E17A843F3E
:100BB0007B14AE47E17A84BF40F2D430C2F20040E9
:100BC00001F0BEB80000000040F24C40C2F200400C
:100BD00001F0B6B80000000040F20410C2F200407C
:100BE00001F0AEB80000000040F27C10C2F20040FC
:100BF00001F0A6B80000000040F25C30C2F20040F4
:100C000001F09EB80000000040F2E420C2F2004073
:100C100001F096B80000000040F2F410C2F200406B
:100C200001F08EB80000000040F26C20C2F20040DB
:100C300001F086B80000000040F20F42D0F800C07A
:100C4000C4F20202944511DC6F22C4F20202944500
:100C500022DC3F22C4F20202944539DC1022C4F2A5
:100C6000020294455AD0282254E000BF40F26F425D
:100C7000C4F2020294451BDC40F23F42C4F202027D
:100C800094452DDC40F21042C4F20202944545D056
:100C900040F228423EE000BF9F22C4F20202944587
:100CA00028DC7022C4F20202944537D0882231E059
:100CB00040F29F42C4F20202944523DC40F27042AB
:100CC000C4F20202944529D040F2884222E000BFDB
:100CD0004022C4F20202944520D058221AE000BFFC
:100CE00040F24042C4F20202944517D040F258420A
:100CF00010E000BFA022C4F2020294450ED0B82238
:100D000008E000BF40F2B842C4F20202944505D0A8
:100D100040F2A042C4F20202944517D10CF0F8024E
:100D20004AF6AB23103ACAF6AA23A2FB03310AA360
:100D30005F2AC1F302115B5C40F2FF312CEA010132
:100D4000C36588BF04318165084670472CF0FF01F8
:100D500081650846704700BF000610160006101691
:100D600070B540F26F44D0F800C0C4F20204D0F86D
:100D700058E0A4451ADC9F25C4F20205AC4533DCDB
:100D80005725C4F20205AC455ADC1025C4F2020511
:100D9000AC4500F098802825C4F20205AC4500F06F
:100DA00092804025C4F202058AE000BF45F22F453B
:100DB000C5F60205AC452DDC40F2B745C4F202058C
:100DC000AC454BDC40F27045C4F20205AC457AD02C
:100DD00040F28845C4F20205AC4574D040F2A0450B
:100DE000C4F202056CE000BF40F22745C4F20205E0
:100DF000AC4543DCA025C4F20205AC4563D0B82560
:100E0000C4F20205AC455ED040F21045C4F20205C2
:100E100056E000BF45F26B45C5F60205AC453FDC28
:100E200045F23045C5F60205AC454CD045F2444587
:100E3000C5F60205AC4546D045F258453EE000BF38
:100E40005825C4F20205AC453DD07025C4F2020518
:100E5000AC4538D08825C4F2020531E040F2B845EF
:100E6000C4F20205AC452ED045F20845C5F6020590
:100E7000AC4528D045F21C4520E000BF40F2284593
:100E8000C4F20205AC451ED040F24045C4F2020552
:100E9000AC4518D040F25845C4F2020510E000BF3E
:100EA00045F26C45C5F60205AC450CD045F29445BB
:100EB000C5F60205AC4506D045F28045C5F60205EB
:100EC000AC4540F0D080456EC66E002E866E6E60DA
:100ED0001CBFD0E91C566E60A44515DC9F24C4F2EB
:100EE0000204A4452CDC5724C4F20204A44551DCBE
:100EF0001024C4F20204A4457AD02824C4F20204C7
:100F0000A44575D040246FE045F22F44C5F6020495
:100F1000A44529DC40F2B744C4F20204A44545DCF0
:100F200040F27044C4F20204A44561D040F2884407
:100F3000C4F20204A4455BD040F2A04454E000BFD8
:100F400040F22744C4F20204A4453FDCA024C4F2CA
:100F50000204A4454CD0B824C4F20204A44547D0EE
:100F600040F2104440E000BF45F26B44C5F6020475
:100F7000A44555DC45F23044C5F60204A44561D0D1
:100F800045F24444C5F60204A4455BD045F25844FA
:100F900054E000BF5824C4F20204A44528D07024B1
:100FA000C4F20204A44523D088241DE040F2B844D2
:100FB000C4F20204A4451BD045F20844C5F602045D
:100FC000A4453FD045F21C4438E000BF40F228441D
:100FD000C4F20204A4450BD040F24044C4F202041F
:100FE000A44505D040F25844C4F20204A4453AD1C5
:100FF0008468C06D00F01F003F2505FA00F0CEF8B0
:101000000800DCF80000402C20F48020CCF8000020
:10101000CCF8043023D1CCF80820CCF80C1070BDEB
:1010200045F26C44C5F60204A4450BD045F2804459
:10103000C5F60204A44505D045F29444C5F6020461
:10104000A44510D1C46D012504F01F04806805FA81
:1010500004F4CEF804404028CCF80430DBD0CCF8BF
:101060000810CCF80C2070BD704700000000000094
:10107000002800F0DA80C10742F64031CFF6FE7159
:10108000024644D00A4600BF00BF00BF00BF00BFF9
:1010900000BF00BF00BF00BF00BF00BF00BF00BF58
:1010A00000BF00BF00BF00BF00BF00BF00BF00BF48
:1010B00000BF00BF00BF00BF00BF00BF00BF00BF38
:1010C00000BF00BF00BF00BF00BF00BF00BF00BF28
:1010D00000BF00BF00BF00BF00BF00BF00BF00BF18
:1010E00000BF00BF00BF00BF00BF00BF00BF00BF08
:1010F00000BF00BF00BF00BF00BF00BF00BF00BFF8
:1011000000BF00BF00BF00BF4032BDD1421E01285A
:1011100008BF7047084600BF00BF00BF00BF00BF48
:1011200000BF00BF00BF00BF00BF00BF00BF00BFC7
:1011300000BF00BF00BF00BF00BF00BF00BF00BFB7
:1011400000BF00BF00BF00BF00BF00BF00BF00BFA7
:1011500000BF00BF00BF00BF00BF00BF00BF00BF97
:1011600000BF00BF00BF00BF00BF00BF00BF00BF87
:1011700000BF00BF00BF00BF00BF00BF00BF00BF77
:1011800000BF00BF00BF00BF00BF00BF00BF00BF67
:1011900000BF00BF00BF00BF4030BDD1084600BF48
:1011A00000BF00BF00BF00BF00BF00BF00BF00BF47
:1011B00000BF00BF00BF00BF00BF00BF00BF00BF37
:1011C00000BF00BF00BF00BF00BF00BF00BF00BF27
:1011D00000BF00BF00BF00BF00BF00BF00BF00BF17
:1011E00000BF00BF00BF00BF00BF00BF00BF00BF07
:1011F00000BF00BF00BF00BF00BF00BF00BF00BFF7
:1012000000BF00BF00BF00BF00BF00BF00BF00BFE6
:1012100000BF00BF00BF00BF00BF00BF00BF00BFD6
:101220004030BDD1023A7FF475AF70470000000036
:10123000042001F0ADBE0000082001F0A9BE0000AE
:10124000102001F0A5BE000080B5202001F0A0FE16
:10125000402001F09DFE8020BDE8804001F098BE56
:10126000EFF3108072B600BFFEE700000000000040
:1012700044F60400C5F60200816841F00201816075
:101280000168890409D4016889045CBF01685FEAC8
:10129000814102D401688904F2D570470000000042
:1012A00040F28C00C2F20040B0F808C08188428849
:1012B00043896244428019448180002181607047E3
:1012C00010B540F28C04C2F20044207F002808BF11
:1012D00010BDB4F9080094ED101A00EE100AB8EE33
:1012E000C02A94ED0D0A84ED0B2A30EE020A84ED3B
:1012F0000D0AB4EE410AF1EE10FA06DCB1EE411A25
:10130000B4EE410AF1EE10FA03DAB0EE410A84EDD0
:101310000D1A94ED091A94ED083A20EE010A94EDA5
:101320000C1A32EE414A94ED0A1A84ED0E4AA3EEED
:10133000020AA1EE040A94ED111A84ED0F0AB4EE2C
:10134000410AF1EE10FA06DC94ED121AB4EE410AED
:10135000F1EE10FA03DAB0EE410A84ED0F1AB4F997
:101360000A0084ED0C2A94ED183A94ED1B2A01EE44
:10137000100AB8EEC11A84ED161A33EE013A84ED64
:10138000183AB4EE423AF1EE10FA06DCB1EE422A17
:10139000B4EE423AF1EE10FA03DAB0EE423A84EDDE
:1013A000182A94ED142A94ED134A23EE022A94EDA0
:1013B000173A31EE435A94ED153A84ED195AA4EEDA
:1013C000012AA3EE052A94ED1C3A84ED1A2AB4EE04
:1013D000432AF1EE10FA06DC94ED1D3AB4EE432AEE
:1013E000F1EE10FA03DAB0EE432A84ED1A3ABDEEBC
:1013F000C00A84ED171ABDEEC22AD4E9030210EE2A
:10140000101A014412EE100A10442278C4E90510A3
:10141000501C2070012004F04BFF0520FFF728FE30
:101420002278A169501C2070022004F041FFD4E909
:101430000501C4E9030110BD40F28C010028C2F28D
:101440000041087718BF70470020C863C1E90B004E
:10145000C1E90D00C1E91600C1E9180088667047AE
:1014600080B540F28C000022C2F200404FF07E5363
:101470000021CBF68072C3644DF20A7302624DF212
:101480000A72C3F6A343CBF62342C0E9141300F15A
:10149000680344F2000CC0E9091243F6004E43F61B
:1014A00000420177C4F29C5CC0E90211C0E904115A
:1014B0008161C4F21C6EC0E90B11C0E90D11C1635A
:1014C000CCF21C62C0F840C0C0E911E2C0E91611BC
:1014D000C0E9181183E80250426780BD0000000097
:1014E000B0B540F28C040125C2F200446178481C7A
:1014F0006070012004F0ECFE0A20FFF7B9FD61786E
:10150000481C6070022004F0E3FE0A20FFF7B0FDE3
:1015100062780020C4E90300C4E90500C4E90B00B7
:10152000C4E90D00E0630021C4E91600C4E9180015
:10153000A066501C6070012004F0BAFE3220FFF754
:1015400097FD62780021501C6070022004F0B0FE0C
:101550003220FFF78DFD2577B0BD000000000000B0
:101560002DE9F041044601F003FE1CB3054694F852
:101570003500022822D140F20F472668C4F2020744
:1015800040F26F48BE426FF00E00C4F202081DDC4C
:101590006F21C4F202018E422ADC3F21C4F2020113
:1015A0008E4241DC1021C4F202018E4263D0282118
:1015B0005CE000BF0120BDE8F08100BF80206065D5
:1015C0000120002184F83410BDE8F08146451BDC81
:1015D00040F23F41C4F202018E422DDC40F2104144
:1015E000C4F202018E4246D040F228413EE000BFE4
:1015F0009F21C4F202018E4228DC7021C4F2020154
:101600008E4238D0882131E040F29F41C4F202017D
:101610008E4223DC40F27041C4F202018E422AD095
:1016200040F2884122E000BF4021C4F202018E4214
:1016300021D058211AE000BF40F24041C4F202011B
:101640008E4218D040F2584110E000BFA021C4F2F1
:1016500002018E420FD0B82108E000BF40F2B8412D
:10166000C4F202018E4206D040F2A041C4F202014F
:101670008E42314607D13146306820F01E0041F8D5
:10168000140B6FF080000A68464500EA020008600B
:101690001ADC9F20C4F20200864233DC5720C4F2D9
:1016A000020086425ADC1020C4F20200864200F09A
:1016B00097802820C4F20200864200F091804020EA
:1016C000C4F202008AE000BF45F22F40C5F60200D6
:1016D00086422DDC40F2B740C4F2020086424BDC69
:1016E00040F27040C4F20200864279D040F2884055
:1016F000C4F20200864273D040F2A040C4F202005D
:101700006CE000BF40F22740C4F20200864243DC96
:10171000A020C4F20200864262D0B820C4F20200C7
:1017200086425DD040F21040C4F2020056E000BF95
:1017300045F26B40C5F6020086423FDC45F2304080
:10174000C5F6020086424BD045F24440C5F6020081
:10175000864245D045F258403EE000BF5820C4F2D2
:10176000020086423CD07020C4F20200864237D08C
:101770008820C4F2020031E040F2B840C4F2020016
:1017800086422DD045F20840C5F60200864227D099
:1017900045F21C4020E000BF40F22840C4F20200A5
:1017A00086421DD040F24040C4F20200864217D06B
:1017B00040F25840C4F2020010E000BF45F26C4015
:1017C000C5F6020086420BD045F29440C5F60200F1
:1017D000864205D045F28040C5F60200864204D11B
:1017E000206E016821F480710160306820F00100F2
:1017F000306000BF3068C00710D001F0B9FC401B5A
:101800000628F7D320206065032084F835000120E6
:10181000002184F83410BDE8F08100BF2068082161
:10182000B8424FF03F0211DC6F23C4F2020398422A
:101830001EDC3F23C4F20203984235DC1023C4F2BD
:101840000203984257D0282350E000BF40451BDCDC
:1018500040F23F43C4F2020398422DDC40F21043B1
:10186000C4F20203984246D040F228433EE000BF53
:101870009F23C4F20203984228DC7023C4F20203BF
:10188000984238D0882331E040F29F43C4F20203EB
:10189000984223DC40F27043C4F2020398422AD0FB
:1018A00040F2884322E000BF4023C4F20203984282
:1018B00021D058231AE000BF40F24043C4F2020393
:1018C000984218D040F2584310E000BFA023C4F261
:1018D000020398420FD0B82308E000BF40F2A043B3
:1018E000C4F20203984206D040F2B843C4F20203A5
:1018F000984240F0C580D4E9163707F01F074045ED
:1019000002FA07F25A5019DC9F21C4F20201884200
:1019100032DC5721C4F20201884259DC1021C4F2A2
:101920000201884200F096802821C4F20201884218
:1019300000F090804021C4F2020189E045F22F417D
:10194000C5F6020188422DDC40F2B741C4F2020123
:1019500088424BDC40F27041C4F20201884279D0E7
:1019600040F28841C4F20201884273D040F2A041A3
:10197000C4F202016CE000BF40F22741C4F2020150
:10198000884243DCA021C4F20201884262D0B8211F
:10199000C4F2020188425DD040F21041C4F202015B
:1019A00056E000BF45F26B41C5F6020188423FDCBC
:1019B00045F23041C5F6020188424BD045F2444120
:1019C000C5F60201884245D045F258413EE000BFCD
:1019D0005821C4F2020188423CD07021C4F20201B5
:1019E000884237D08821C4F2020131E040F2B84188
:1019F000C4F2020188422DD045F20841C5F6020129
:101A0000884227D045F21C4120E000BF40F2284127
:101A1000C4F2020188421DD040F24041C4F20201EA
:101A2000884217D040F25841C4F2020110E000BFD2
:101A300045F26C41C5F6020188420BD045F2944153
:101A4000C5F60201884205D045F28041C5F6020183
:101A500088420BD1616EA26EE06E4A6030B10168BF
:101A600021F480710160D4E91C014160012084F8F7
:101A700035000020002184F83410BDE8F08100BF5B
:101A80000421012237E70000F0B190F83510022957
:101A900018D180B540F20F420168C4F202029142AF
:101AA00014DC6F23C4F20203994225DC3F23C4F205
:101AB000020399423CDC1023C4F2020399425DD038
:101AC000282357E0802141650120704740F26F4391
:101AD000C4F2020399421BDC40F23F43C4F202030A
:101AE00099422DDC40F21043C4F20203994245D0E2
:101AF00040F228433EE000BF9F23C4F20203994214
:101B000028DC7023C4F20203994237D0882331E0E5
:101B100040F29F43C4F20203994223DC40F2704337
:101B2000C4F20203994229D040F2884322E000BF68
:101B30004023C4F20203994220D058231AE000BF88
:101B400040F24043C4F20203994217D040F2584396
:101B500010E000BFA023C4F2020399420ED0B823C4
:101B600008E000BF40F2B843C4F20203994205D036
:101B700040F2A043C4F20203994275D191424FF062
:101B8000040280F8352011DC6F20C4F2020081428B
:101B900022DC3F20C4F20200814239DC1020C4F272
:101BA0000200814259D0282054E000BF40F26F402B
:101BB000C4F2020081421BDC40F23F40C4F202004A
:101BC00081422DDC40F21040C4F20200814244D038
:101BD00040F228403EE000BF9F20C4F20200814254
:101BE00028DC7020C4F20200814236D0882031E027
:101BF00040F29F40C4F20200814223DC40F2704078
:101C0000C4F20200814228D040F2884022E000BFA6
:101C10004020C4F2020081421FD058201AE000BFC9
:101C200040F24040C4F20200814216D040F25840D7
:101C300010E000BFA020C4F2020081420DD0B82005
:101C400008E000BF40F2B840C4F20200814204D074
:101C500040F2A040C4F202008142086820F0010076
:101C60000860002080BD00BF0A6822F00E020A60F2
:101C700045F25742C5F6020291420A6822F001027B
:101C80000A600FDC45F22F42C5F60202914219DCD0
:101C900045F20842C5F60202914229D045F21C42A3
:101CA00022E000BF45F27F42C5F60202914213DCFA
:101CB00045F25842C5F60202914219D045F26C42F3
:101CC00012E000BF45F23042C5F6020291420FD049
:101CD00045F2444208E000BF45F29442C5F60202D4
:101CE000914205D045F28042C5F6020291421AD1D6
:101CF000D0E9181CD0E916E30A6822F480720A6061
:101D000003F01F01012202FA01F1CEF80410816EE6
:101D1000CCF80410C16E31B10A6822F480720A60F6
:101D2000D0E91C124A60012180F83510016D0022B3
:101D3000002980F8342094D08847002080BD00001E
:101D40002DE9F04782B00021019140F2080148F2EC
:101D5000B513C2F20041C1F64E33856D40F26F49B2
:101D60000A680168C4F202092E68A2FB03284945EB
:101D70002A6815DC9F22C4F2020291422CDC572211
:101D8000C4F20202914251DC1022C4F202029142DA
:101D90007BD02822C4F20202914276D040226FE02A
:101DA00045F22F43C5F60203994229DC40F2B743BE
:101DB000C4F20203994245DC40F27042C4F20202CE
:101DC000914262D040F28842C4F2020291425CD059
:101DD00040F2A04254E000BF40F22742C4F20202A7
:101DE00091423FDCA022C4F2020291424DD0B822BF
:101DF000C4F20202914248D040F2104240E000BFDB
:101E000045F26B43C5F60203994275DC45F2304357
:101E1000C5F60203994200F0828045F24443C5F6BC
:101E2000020399427BD045F2584373E05822C4F232
:101E30000202914229D07022C4F20202914224D0BF
:101E400088221DE040F2B843C4F2020399421CD03C
:101E500045F20843C5F60203994260D045F21C439F
:101E600058E000BF40F22842C4F2020291420CD076
:101E700040F24042C4F20202914206D040F258427F
:101E8000C4F20202914240F05383C26D082302F073
:101E90001F0240F20F4A9340C4F2020A334200F09C
:101EA000DE8051454FF0040412DC6F27C4F20207B4
:101EB000B9426DDC3F27C4F20207B94200F39C80AF
:101EC0001027C4F20207B94200F0BD802827B5E010
:101ED000494569DC40F23F47C4F20207B94200F3CA
:101EE000938040F21047C4F20207B94200F0AB8081
:101EF00040F22847A2E000BF45F26C43C5F602035A
:101F000099420CD045F28043C5F60203994206D0AF
:101F100045F29443C5F60203994240F009830B68E9
:101F2000C76D07F01F070426BE40164218BF13F006
:101F3000040423D10226BE40164218BF13F0020447
:101F400042D1FA40120740F1F38213F0080200F088
:101F5000EF820A6822F00E020A60012101FA07F2FC
:101F60006A60416580F83510C16C00294FF00002AD
:101F700080F8342040F0D882DAE200BF1A046E60A4
:101F800034D49A0636D40A6822F004020A6031E09A
:101F90009F27C4F20207B94240DC7027C4F202074F
:101FA000B94250D0882749E040F29F47C4F2020767
:101FB000B9423BDC40F27047C4F20207B94242D05A
:101FC00040F288473AE000BF1A046E6000F1B48224
:101FD0009A0600F1B5820A6822F00A020A6001211D
:101FE00080F83510002180F83410A9E2D90301D41B
:101FF000816C98E2016C96E24027C4F20207B94274
:1020000021D058271AE000BF40F24047C4F202072F
:10201000B94218D040F2584710E000BFA027C4F2E0
:102020000207B9420FD0B82708E000BF40F2A0472E
:10203000C4F20207B94206D040F2B847C4F2020720
:10204000B94218BF08240F68274208D00F6827F04C
:1020500004070F60AB60436D43F001034365012348
:10206000934033426FD0514510DC6F27C4F2020712
:10207000B9421DDC3F27C4F20207B94234DC102705
:10208000C4F20207B94256D028274FE049451BDC6D
:1020900040F23F47C4F20207B9422DDC40F210473C
:1020A000C4F20207B94246D040F228473EE000BFE2
:1020B0009F27C4F20207B94228DC7027C4F2020746
:1020C000B94238D0882731E040F29F47C4F2020776
:1020D000B94223DC40F27047C4F20207B9422AD069
:1020E00040F2884722E000BF4027C4F20207B9420D
:1020F00021D058271AE000BF40F24047C4F202073F
:10210000B94218D040F2584710E000BFA027C4F2EF
:102110000207B9420FD0B82708E000BF40F2A0473D
:10212000C4F20207B94206D040F2B847C4F202072F
:10213000B94240F007824F693F0604D5AB60436D5A
:1021400043F0020343650423934033426FD051456B
:1021500010DC6F27C4F20207B9421DDC3F27C4F22E
:102160000207B94234DC1027C4F20207B94256D044
:1021700028274FE049451BDC40F23F47C4F20207E5
:10218000B9422DDC40F21047C4F20207B94246D0F2
:1021900040F228473EE000BF9F27C4F20207B94241
:1021A00028DC7027C4F20207B94238D0882731E012
:1021B00040F29F47C4F20207B94223DC40F2704765
:1021C000C4F20207B9422AD040F2884722E000BF99
:1021D0004027C4F20207B94221D058271AE000BFB5
:1021E00040F24047C4F20207B94218D040F25847C3
:1021F00010E000BFA027C4F20207B9420FD0B827F1
:1022000008E000BF40F2A047C4F20207B94206D07E
:1022100040F2B847C4F20207B94240F09B810F6810
:10222000BF0704D5AB60436D43F00403436510233F
:1022300003FA02F2324200F0828051454FF0080367
:1022400010DC6F27C4F20207B9421DDC3F27C4F23D
:102250000207B94234DC1027C4F20207B94256D053
:1022600028274FE049451BDC40F23F47C4F20207F4
:10227000B9422DDC40F21047C4F20207B94246D001
:1022800040F228473EE000BF9F27C4F20207B94250
:1022900028DC7027C4F20207B94238D0882731E021
:1022A00040F29F47C4F20207B94223DC40F2704774
:1022B000C4F20207B9422AD040F2884722E000BFA8
:1022C0004027C4F20207B94221D058271AE000BFC4
:1022D00040F24047C4F20207B94218D040F25847D2
:1022E00010E000BFA027C4F20207B9420FD0B82700
:1022F00008E000BF40F2A047C4F20207B94206D08E
:1023000040F2B847C4F20207B94218BF04230F686D
:102310001F4214D0AA600A6852030A6808D4D20582
:1023200008D40A6822F008020A60016C21B906E0AC
:10233000110351D4016C11B1044688472046C16D88
:1023400001F01F02202101FA02F3334200F0AF80B6
:1023500001681027514511DC6F26C4F20206B14214
:102360001EDC3F26C4F20206B14239DC1026C4F25C
:102370000206B1425BD0282654E000BF49451BDC71
:1023800040F23F46C4F20206B14231DC40F2104650
:10239000C4F20206B1424AD040F2284642E000BFF1
:1023A0009F26C4F20206B1422CDC7026C4F202065B
:1023B000B1423CD0882635E040F29F46C4F2020686
:1023C000B14227DC40F27046C4F20206B1422ED080
:1023D00040F2884626E000BF816C0029ACD1AEE710
:1023E0004026C4F20206B14221D058261AE000BFAE
:1023F00040F24046C4F20206B14218D040F25846BC
:1024000010E000BFA026C4F20206B1420FD0B826E9
:1024100008E000BF40F2A046C4F20206B14206D076
:1024200040F2B846C4F20206B14218BF02270E6855
:102430003E423CD0AB6090F83530042B0B681DD188
:1024400023F016030B604B6923F080034B61036C90
:102450000BB9836C1BB10B6823F008030B603F21A1
:102460009140A960012180F83510016D00294FF0DD
:10247000000280F8342057D15AE000BF5A030A689E
:102480000CD4D2050ED40A6822F010020A60012191
:1024900080F83510002180F8341003E0110301D4D6
:1024A000416C00E0C16B11B1044688472046416D84
:1024B00000293DD0416DC90734D0042180F8351082
:1024C00001684FEA98220B6823F001030B60019B1F
:1024D0000133019393421AD80B68DB0717D0019B95
:1024E00001330193934212D80B68DB070FD0019B95
:1024F0000133019393420AD80B68DB0707D0019B95
:1025000001330193934202D80B68DB07DFD10968DE
:10251000C9074FF0030108BF012180F835100021E1
:1025200080F83410C16C19B102B0BDE8F04708471B
:1025300002B0BDE8F08700BFD90301D4416CF2E7D7
:10254000C16BF0E70B680423934033427FF4FFAD87
:102550006DE600BF0B686AE62DE9F041044600F025
:1025600007FEFCB140F26F4805462068C4F202083D
:1025700040451BDC9F21C4F20201884232DC572116
:10258000C4F20201884259DC1021C4F202018842DF
:1025900000F083802821C4F20201884200F07D808F
:1025A000402175E00120BDE8F08100BF45F22F41D8
:1025B000C5F60201884229DC40F2B741C4F20201AB
:1025C000884247DC40F27041C4F20201884264D084
:1025D00040F28841C4F2020188425ED040F2A0413C
:1025E00056E000BF40F22741C4F20201884241DCBC
:1025F000A021C4F2020188424FD0B821C4F20201E6
:1026000088424AD040F2104142E000BF45F26B419F
:10261000C5F60201884200F3B38045F23041C5F6A9
:102620000201884200F0BF8045F24441C5F6020134
:10263000884200F0B88045F25841AFE05821C4F21A
:102640000201884229D07021C4F20201884224D0BC
:1026500088211DE040F2B841C4F2020188421CD03A
:1026600045F20841C5F60201884200F09C8045F21F
:102670001C4193E040F22841C4F2020188420CD090
:1026800040F24041C4F20201884206D040F2584173
:10269000C4F20201884240F01B81022184F8351007
:1026A000002184F83410016821F00101016000BFAD
:1026B00020680168C9070DD000F05AFD401B0628AC
:1026C000F6D320206065032084F835000120BDE8A2
:1026D000F08100BF48F23F0204F108060168CFF61E
:1026E0001062114065694CCE1143A2691943E36938
:1026F0003143266A0D43616A2B43042943EA0603EA
:1027000043EA020303D1D4E90B652E43334341F27C
:102710000006C5F600463668B6F1005F0FD365685F
:10272000A5F129061F2E00F235820127B7403F266A
:10273000CCF2C036374200F02D8243F480130360A0
:102740000429436923F0070341EA030140F0DC80D8
:10275000D4E90A53002B41EA050100F0D580B2F517
:10276000005F00F0B780002A40F0C080022D00F02A
:10277000C080012D00F0B480002D00F0BA80C3E0CD
:1027800045F26C41C5F6020188420CD045F2804109
:10279000C5F60201884206D045F29441C5F6020111
:1027A000884240F0958004F1080E022184F835102B
:1027B000002184F834100168A3699EE80450A2F156
:1027C0008005E769B5FA85F566696D09402A4FEA23
:1027D000853543EA07026FF3101142EA060208BF8B
:1027E000102541EADC0142EA0E02236A294341EA4C
:1027F000D20141EA131140F80819C0B2CD21484373
:102800003C2101EA9020E0652046FEF715FAE16DD3
:10281000012201F01F0102FA01F1416020684045E8
:1028200000F381809F21C4F20201884214DC572109
:10283000C4F20201884227DC1021C4F2020188425E
:1028400000F0C7802821C4F20201884200F0C18054
:102850004021C4F20201B9E040F22741C4F2020172
:10286000884221DCA021C4F20201884200F0B1803C
:10287000B821C4F20201884200F0AB8040F210415E
:10288000C4F20201A2E000BF5821C4F20201884252
:1028900000F09F807021C4F20201884200F099800C
:1028A0008821C4F2020191E040F22841C4F2020101
:1028B000884200F08E8040F24041C4F2020188421A
:1028C00000F0878040F25841C4F202017EE000BF70
:1028D0004020F7E6032D17D8DFE805F00E0B0E02B7
:1028E000A3F1C072B2FA82F2520904E0032D03D3BD
:1028F0000AD1C3F300623AB140206065012084F838
:102900003500BDE8F08100BF41612046FEF794F933
:10291000E16D3F2201F01F0102FA01F181602068A0
:1029200040457FF77FAF45F22F41C5F6020188424F
:1029300016DC40F2B741C4F20201884226DC40F2C4
:102940007041C4F20201884243D040F28841C4F28F
:10295000020188423DD040F2A041C4F2020135E0BC
:1029600045F26B41C5F6020188421FDC45F2304159
:10297000C5F6020188422CD045F24441C5F6020159
:10298000884226D045F258411EE000BF40F2B841CF
:10299000C4F2020188421CD045F20841C5F602018A
:1029A000884216D045F21C410EE000BF45F26C4152
:1029B000C5F6020188420CD045F29441C5F60201E9
:1029C000884206D045F28041C5F60201884240F0B7
:1029D000D98045F2574C45F6FC0EC5F6020CC5F6FB
:1029E000020E60450EDC45F22F41C5F60201884219
:1029F00018DC45F20841C5F60201884228D045F2AC
:102A00001C4121E045F27F41C5F60201884213DCFA
:102A100045F25841C5F60201884219D045F26C4191
:102A200012E000BF45F23041C5F6020188420FD0E6
:102A300045F2444108E000BF45F29441C5F6020169
:102A4000884205D045F28041C5F60201884247D14F
:102A500000F0FC014CF6CD420839CCF6CC42A1FB8B
:102A60000212AEF1FC05AEF17C061309A26803F078
:102A70001F01802A4FF0010205EB8305256602FA4B
:102A800001F26666A26605D100206060286072606F
:102A90001EE000BF6368D9B25F1E072F2960726015
:102AA00016D84E1E082E19D260450EF1440237DCAE
:102AB00045F22F41C5F60201884241DC45F208414A
:102AC000C5F60201884251D045F21C414AE000BFE0
:102AD00000206067C4E91B0054E000BFE06E4CE0DA
:102AE00000F0F8014AF6AB221039CAF6AA22A1FB7F
:102AF000021240F20F43C4F2020308251109984262
:102B000003F1AA060B4688BF05EB121340F6000539
:102B1000B042C4F2020505F1800628BF0B46A5E7C6
:102B200045F27F41C5F60201884213DC45F2584167
:102B3000C5F60201884219D045F26C4112E000BF8F
:102B400045F23041C5F6020188420FD045F24441BA
:102B500008E000BF45F28041C5F60201884205D079
:102B600045F29441C5F6020188421BD10EEB830069
:102B70000121E066B1402267616700210160D4E96C
:102B80001C01416000206065012184F83510BDE81A
:102B9000F08100BFA5F14F07042F38BF43F4801325
:102BA000CDE500BF40F60000C4F2020000F1FC0ECB
:102BB00000F5A072DAE7000030B110B590F83440AB
:102BC000012C03D1022010BD01207047012480F8A0
:102BD000344090F83540012C2CD1022480F8354047
:102BE00000244465D0F800C0DCF8004024F0010463
:102BF000CCF800400446FEF7B3F840F20F4C2068D2
:102C0000C4F2020C40F26F416045C4F2020119DCCB
:102C10006F23C4F20203984226DC3F23C4F202036E
:102C200098423DDC1023C4F2020398425FD028236F
:102C300058E000BF4FF400614165002180F8341076
:102C4000012010BD88421BDC40F23F43C4F2020366
:102C500098422DDC40F21043C4F20203984246D061
:102C600040F228433EE000BF9F23C4F20203984293
:102C700028DC7023C4F20203984238D0882331E064
:102C800040F29F43C4F20203984223DC40F27043B7
:102C9000C4F2020398422AD040F2884322E000BFE7
:102CA0004023C4F20203984221D058231AE000BF07
:102CB00040F24043C4F20203984218D040F2584315
:102CC00010E000BFA023C4F2020398420FD0B82343
:102CD00008E000BF40F2B843C4F20203984206D0B5
:102CE00040F2A043C4F20203984240F02F810368EF
:102CF0000B2262F344030360226C1AB108230268BA
:102D00001A430260884219DC9F22C4F202029042F8
:102D100032DC5722C4F20202904259DC1022C4F283
:102D20000202904200F096802822C4F202029042F1
:102D300000F090804022C4F2020289E045F22F4266
:102D4000C5F6020290422DDC40F2B742C4F2020204
:102D500090424BDC40F27042C4F20202904279D0C1
:102D600040F28842C4F20202904273D040F2A04284
:102D7000C4F202026CE000BF40F22742C4F2020239
:102D8000904243DCA022C4F20202904262D0B822F8
:102D9000C4F2020290425DD040F21042C4F202023C
:102DA00056E000BF45F26B42C5F6020290423FDC9E
:102DB00045F23042C5F6020290424BD045F2444201
:102DC000C5F60202904245D045F258423EE000BFAF
:102DD0005822C4F2020290423CD07022C4F2020295
:102DE000904237D08822C4F2020231E040F2B84269
:102DF000C4F2020290422DD045F20842C5F602020A
:102E0000904227D045F21C4220E000BF40F2284209
:102E1000C4F2020290421DD040F24042C4F20202CB
:102E2000904217D040F25842C4F2020210E000BFB4
:102E300045F26C42C5F6020290420BD045F2944234
:102E4000C5F60202904205D045F28042C5F6020264
:102E5000904274D1236E1A68D20303D51A6842F4E3
:102E600080721A60E36E1BB11A6842F480721A60B5
:102E7000604511DC6F21C4F2020188421EDC3F2153
:102E8000C4F20201884235DC1021C4F202018842FA
:102E900055D0282150E000BF88421BDC40F23F4162
:102EA000C4F2020188422DDC40F21041C4F202015A
:102EB000884244D040F228413EE000BF9F21C4F246
:102EC0000201884228DC7021C4F20201884236D017
:102ED000882131E040F29F41C4F20201884223DCA4
:102EE00040F27041C4F20201884228D040F2884189
:102EF00022E000BF4021C4F2020188421FD05821C5
:102F00001AE000BF40F24041C4F20201884216D0EC
:102F100040F2584110E000BFA021C4F202018842F3
:102F20000DD0B82108E000BF40F2B841C4F2020160
:102F3000884204D040F2A041C4F2020188420168F4
:102F400041F001010160002010BD00BF02680523AF
:102F500063F343020260226C002A3FF4D3AE0423E1
:102F6000CDE6000000000000042818BF704780B5BF
:102F700001200021002203F09BF90120FEF778F8E0
:102F8000022000210122BDE8804003F091B9000039
:102F90008821C5F600010A68024208BF7047086030
:102FA000FFF7E2BF000000002DE9F04F83B00F688B
:102FB000002F00F0C98000F1264642F2004506F1DC
:102FC000FF76C5F602050A22A8424FEAB62540F26E
:102FD000040C08BF092200F120030093092DC5F657
:102FE000000C38BF4FEAB622002400264FF000083C
:102FF00001920AE008F101080F6837FA08F206F1B9
:10300000020604F1040400F09F80012202FA08FE87
:1030100017EA0E09EED0D1F804B003220BF0030733
:10302000B2407D1E6FEA020A012D11D88268CD6878
:1030300002EA0A02B5402A438260CBF300154268D7
:1030400022EA0E0205FA08F52A43426004E000BFB6
:10305000032F01D103271FE0C2688D6802EA0A022C
:10306000B540022F42EA0502C26015D16FF003029B
:1030700004F01C0502EA580B009A0F2352F80BE0EB
:10308000AB400F692EEA0303AF403B4342F80B30DD
:10309000D1F804B00BF00307026807FA06F302EA5E
:1030A0000A021BF4403F42EA03020260A2D044F24B
:1030B000F44340F2084EC5F60203C5F6000E0F2594
:1030C0001A6842F002021A601A6802F002020292C2
:1030D00028F00302029B04F00C0352F80E709D408E
:1030E000AF43019D05FA03F33B4342F80E304FF026
:1030F000B04EDEF800204B6842EA0907DD0258BFF7
:1031000022EA09079D02CEF80070DCF8002042EAAE
:10311000090758BF22EA09079D03CCF80070DCF8C4
:10312000802042EA090758BF22EA0907DB03CCF8EE
:103130008070DCF87C2042EA090758BF22EA0907C0
:10314000CCF87C7056E700BF03B0BDE8F08F0000FC
:10315000002A08BF090481617047000000000000D8
:1031600041F20000C5F600400068000C7047000006
:1031700040F69440C2F20040006870470000000032
:1031800040F2000040F69441C2F20040C2F2004119
:1031900000780A68104408607047000000000000D2
:1031A00080B5032000F0FCF801F0AAF944F21841C0
:1031B00047F68A53C5F60201C0F600030A68C2F357
:1031C00003229A5C096801F00F0102F01F02595CAA
:1031D000D04040F20C02C2F2004201F01F0120FA7E
:1031E00001F1116040F20801C2F2004108600F20B5
:1031F00000F00AF800281CBF012080BD00F07CF818
:10320000002080BD00000000B0B540F20005C2F211
:1032100000452978F1B1044640F20800C2F20040AE
:103220004FF47A72B2FBF1F10068B0FBF1F001F0FB
:10323000AFFC0F2C01464FF001000AD8002918BF3F
:10324000B0BD4FF0FF300022214600F079F8002099
:103250006C60B0BD0120B0BD10B54EF6A05E4378E5
:10326000CEF2000E90F800C04EF8083CDEF80030B8
:1032700023F00103CEF8003043684EF8043C037B92
:10328000C27A817A447B120642EA0372837B42EA65
:10329000C141C27B41EA8441447A41EA4341007A18
:1032A00041EA024141EA042141EA400040EA0C00BF
:1032B000CEF8000010BD00004EF62450CEF2000003
:1032C000BFF35F8F016821F4803101600021016745
:1032D00070470000000000004EF6245140F001004D
:1032E000CEF200010867086840F480300860BFF340
:1032F0004F8FBFF36F8F704781B044F2F440C5F633
:103300000200016841F002010160006800F0020063
:103310000090009801B07047002848BF704700F047
:103320001F01012202FA01F14EF20012C0F34A100D
:10333000CEF2000242F820107047000000000000AA
:1033400070B54EF60C5C4FF0FF36CEF2000C00F17B
:10335000604505F56445DCF80030C3F3022E8EF0BD
:103360000703042B28BF0423BEF1030406FA03F36A
:1033700021EA030100F00F0338BF0024043B0028BA
:10338000634406FA04F048BF03F10C05A14022EAA9
:10339000000008430001287070BD0000000000001C
:1033A0004EF60C514FF6FF03CEF200010A681A40A8
:1033B00060F30A2242F0806040F0FD7008607047C0
:1033C000B0B544F60C05C5F6020529684907296819
:1033D00006D401F00701081A18BF0120B0BD00BFD4
:1033E00021F0070108432860FFF7C2FE044600BF32
:1033F00055F8080C800407D4FFF7BAFE001BB0F59F
:103400007A7FF5D90120B0BD0020B0BD00000000DA
:1034100080B500F0EDFF44F2204147F68A52C5F630
:103420000201C0F600020968C1F30211515C01F00B
:103430001F01C84080BD000080B544F2384EC5F67B
:10344000020E5EF8103C5EF8101C5EF80C2CC1F306
:10345000053CDEF80410BCF1000F19D0C9089FED3F
:103460003C1AD20601EAE27103F003026FF35F3106
:1034700000EE101AB8EE400ADFE802F00222102235
:103480005EF8381C89060DD49FED331A18E000BF92
:1034900000218160C0E9001180BD00BF9FED2D1AA1
:1034A0000EE000BF5EF8381C49F20002C0F2D032D4
:1034B000C1F3C10122FA01F101EE101AB8EE411A6E
:1034C000DEF800109FED253A6FF35F2102EE101A2F
:1034D000DEF80010C1F34621B8EE422A013100EEB9
:1034E000032A00EE10CAB7EE003AB8EE400A81EEA9
:1034F000000A32EE031A20EE010A01EE101AB8EEAD
:10350000411A80EE011ABCEEC11A80ED001ADEF8F5
:103510000010C1F30641013101EE101AB8EE411A54
:1035200080EE011ABCEEC11A80ED011ADEF800101F
:10353000C1F30661013101EE101AB8EE411A80EEB6
:10354000010ABCEEC00A10EE101A816080BD00BFF7
:103550000024744A20BCBE4B0024744C0000003987
:1035600080B544F2404EC5F6020E5EF8183C5EF897
:10357000181C5EF8142CC1F3055CDEF80410BCF1D5
:10358000000F19D0C9089FED3C1AD20501EAE2717B
:1035900003F003026FF35F3100EE101AB8EE400A39
:1035A000DFE802F0022210225EF8401C89060DD4EA
:1035B0009FED331A18E000BF00218160C0E90011BF
:1035C00080BD00BF9FED2D1A0EE000BF5EF8401CCD
:1035D00049F20002C0F2D032C1F3C10122FA01F176
:1035E00001EE101AB8EE411ADEF800109FED253AF0
:1035F0006FF35F2102EE101ADEF80010C1F34621CE
:10360000B8EE422A013100EE032A00EE10CAB7EEEE
:10361000003AB8EE400A81EE000A32EE031A20EEBC
:10362000010A01EE101AB8EE411A80EE011ABCEE42
:10363000C11A80ED001ADEF80010C1F30641013115
:1036400001EE101AB8EE411A80EE011ABCEEC11A52
:1036500080ED011ADEF80010C1F30661013101EEC0
:10366000101AB8EE411A80EE010ABCEEC00A10EE44
:10367000101A816080BD00BF0024744A20BCBE4B7C
:103680000024744C000000392DE9F0470446C0784E
:1036900044F22C480007C5F6020828D5A06E4FEA70
:1036A000305103292AD8DFE801F0030B131B00BFB8
:1036B000D8F8001041F40031C8F8001010E000BF45
:1036C00004F10800022102F0F3FB064680B906E08F
:1036D00004F12800022102F07FFC064640B9A06EEA
:1036E000D8F8241021F440110843C8F8240000261B
:1036F0006078C00706D135462FE000BF012660780C
:10370000C007F8D0A06D042858D83546DFE800F08F
:1037100004140E0B0B0000BFD8F80000354640F42F
:103720000030C8F800002F46C5B90DE004F12800AC
:10373000002102F051FC04E004F10800002102F035
:10374000B7FB05462F464DB9D8F82400A16D20F0EF
:10375000070000250843C8F8240037466078800732
:1037600031D5E06D4FEAB01004285FD8DFE800F0F3
:1037700004140E0A0A0000BFD8F8000040F400301C
:10378000C8F800002E46FDB90EE000BF04F1280085
:10379000002102F021FC04E004F10800002102F005
:1037A00087FB05462E467DB9D8F82400E16D20F44C
:1037B000E07000250843C8F8240004E00125012733
:1037C00060788007CDD43E466078400733D5D4F882
:1037D000A8004FEA7050042860D8DFE800F0031317
:1037E0000D090900D8F8000040F40030C8F80000C6
:1037F000A9460DBB0EE000BF04F12800002102F035
:10380000EBFB04E004F10800002102F051FB054647
:10381000A9468DB9D8F82C00D4F8A81020F460007F
:1038200000250843C8F82C0005E000BF012501264B
:1038300060784007CBD4B1466078000734D5D4F81F
:10384000AC004FEA306004285ED8DFE800F00313D4
:103850000D090900D8F8000040F40030C8F8000055
:103860002F4615BB0EE000BF04F12800002102F036
:10387000B3FB04E004F10800002102F019FB054647
:103880002F4695B9D8F82C00D4F8AC1020F0E060A1
:1038900000250843C8F82C0006E000BF01254FF0C2
:1038A000010960780007CAD44F46E078800730D518
:1038B000E06C4FEA3010032820D8DFE800F009035D
:1038C000150900BFD8F8000040F40030C8F8000027
:1038D0002E46ADB9D8F82000E16C20F0300000256C
:1038E0000843C8F8200014E004F10800022102F0A7
:1038F000DFFA05462E461DB9ECE700BF012501267B
:103900006078C00609D434E001250127E0788007FB
:10391000CED43E466078C0062BD5206E4FEA3030BC
:10392000042839D8DFE800F004140E0A0A0000BFAA
:10393000D8F8000040F40030C8F800002F46CDB998
:103940000EE000BF04F12800002102F045FB04E076
:1039500004F10800002102F0ABFA05462F464DB9EC
:10396000D8F82400216E20F4E04000250843C8F870
:10397000240037466078800635D5606E4FEA3040C7
:10398000052815D8DFE800F0041A0E04040400BF6F
:103990002E46DDB91EE000BF0125012760788006B4
:1039A000EBD420E004F12800012102F015FB0AE02D
:1039B000012501266078400619D449E004F1080089
:1039C000012102F075FA05462E461DB160784006C9
:1039D0000DD43DE0D8F82400616E20F4E0200025ED
:1039E0000843C8F824003E466078400630D5D4F835
:1039F000B0004FEA307005280ED8DFE800F003135E
:103A0000070303032F46ADB918E000BF04F12800F7
:103A1000012102F0E1FA0AE00125012760780006A1
:103A20001AD43CE004F10800012102F041FA0546F5
:103A30002F461DB1607800060ED430E0D8F82C0077
:103A4000D4F8B01020F0E04000250843C8F82C005E
:103A500037466078000622D5206F58B1B0F1005F7C
:103A60000CD0B0F1805F37D1D8F8000040F40030BE
:103A7000C8F800002E469DB908E000BF04F1080018
:103A8000012102F015FA05462E464DB9D8F824005A
:103A9000216F20F0405000250843C8F824003E461E
:103AA000E078C0071DD0A06C032855D8DFE800F0EF
:103AB00008024A08D8F8000040F40030C8F80000B6
:103AC000A9467DB9D8F82000A16C20F0030000259C
:103AD0000843C8F8200004E001250126E078C0076B
:103AE000E1D1B146A078400602D44F4618E000BFAD
:103AF000D8F8D40340F48070C8F8D403FFF738FB3B
:103B0000064600BFD8F8D403C00507D4FFF730FB42
:103B1000801B6428F6D90325032701E02F46FDB159
:103B20002078C00700F06F80E06F4FEAF0000528B2
:103B30004ED8DFE800F0035347030303002D2E4661
:103B400054D157E004F10800022102F0B1F9054612
:103B5000002DA946C6D1B5E701254FF00109C1E7FF
:103B6000D8F84410D4F8B400414011F4407F11D08B
:103B7000D8F84410D8F8442042F48032C8F84420E1
:103B8000D8F8442021F4407122F48032C8F844204F
:103B9000C8F84410B0F5807F40F0E082FFF7E8FA03
:103BA000064641F2883A0325032700BFD8F84400AF
:103BB000800700F1D182FFF7DBFA801B5045F5D971
:103BC000AEE700BF04F12800012102F005FA0AE087
:103BD000012501262078800719D446E004F1080069
:103BE000012102F065F905462E461DB120788007B7
:103BF0000DD43AE0D8F82800E16F20F03800002515
:103C00000843C8F828003E46207880072DD5A06FCD
:103C100005280FD8DFE800F004140804040400BFEE
:103C20002F46ADB918E000BF04F12800012102F0D1
:103C3000D3F90AE0012501272078400719D447E08D
:103C400004F10800012102F033F905462F461DB1A9
:103C5000207840070DD43BE0D8F82800A16F20F071
:103C6000070000250843C8F8280037462078400799
:103C70002ED5D4F8940005280ED8DFE800F0031301
:103C8000070303032E46ADB918E000BF04F1280076
:103C9000012102F0A1F90AE0012501262078800621
:103CA0001AD44BE004F10800012102F001F90546A5
:103CB0002E461DB1207880060ED43FE0D8F82C00A7
:103CC000D4F8941020F0070000250843C8F82C0011
:103CD0003E462078800631D5D4F890004FEA307007
:103CE00005280FD8DFE800F004140804040400BF1E
:103CF0002F46ADB918E000BF04F12800022102F000
:103D00006BF90AE001250127207840061AD44BE020
:103D100004F10800002102F0CBF805462F461DB142
:103D2000207840060ED43FE0D8F82800D4F8901050
:103D300020F0E04000250843C8F8280037462078E6
:103D4000400631D5D4F89C004FEAB02005280FD8A2
:103D5000DFE800F004140804040400BF2E46ADB9E7
:103D600018E000BF04F12800022102F035F90AE052
:103D700001250126207800061AD44EE004F108003F
:103D8000002102F095F805462E461DB12078000668
:103D90000ED442E0D8F82C00D4F89C1020F4E05067
:103DA00000250843C8F82C003E462078000634D58C
:103DB000D4F8A0004FEA7030052815D8DFE800F0ED
:103DC000041A0E04040400BF2F46E5B12068010761
:103DD00027D4C1063ED4000355D477E004F128006F
:103DE000022102F0F9F80AE0012501272068010705
:103DF000EFD516E004F10800002102F059F805465D
:103E0000002D2F46E2D1D8F82C00D4F8A01020F4D1
:103E1000604000250843C8F82C0037462068010799
:103E2000D7D5D4F88400B0F5805F09D104F128001B
:103E3000022102F0D1F8002818BF0127D4F884002D
:103E4000D8F8281021F440510843C8F82800206809
:103E5000C106C0D5D4F89800B0F5807F09D104F12F
:103E60002800022102F0B8F8002818BF0127D4F872
:103E70009800D8F82C1021F440710843C8F82C00A1
:103E80002068000322D5D4F8A400B0F5003F11D07B
:103E9000B0F5803F08D0002844D104F1080000218B
:103EA00002F006F805E000BF04F12800022102F04C
:103EB00093F805462E4655B9D8F82C00D4F8A4102E
:103EC00020F4403000250843C8F82C003E46A07876
:103ED00040072CD5D4F88800B0F5401F0BD0B0F5C2
:103EE000001F0BD0B0F5801F2AD1D8F8000040F495
:103EF0000030C8F800002F46D5B907E004F12800CB
:103F0000012102F069F805462F468DB9D8F828003E
:103F1000D4F8881020F4401000250843C8F8280081
:103F200005E000BF01250126A0784007D2D437461E
:103F3000A078C00709D13E462168880015D532E037
:103F400001250127A078C007F5D0206DB0F5803F8E
:103F500010D018BBD8F8000040F40030C8F80000BA
:103F60002E4685B1216888001DD460688A0326D456
:103F700069E000BF04F10800022101F099FF054645
:103F8000002D2E46EED1D8F82000216D20F480308F
:103F900000250843C8F82000CDE700BF0125012611
:103FA00021688800E1D504F12800022102F014F80C
:103FB000002818BF0126D4E900108A0343D5D4F89D
:103FC00080206FF0010303EB3223022B0BD34FEA67
:103FD000322343B1012B40F0B980D8F8003043F4CC
:103FE0000033C8F800303DB3CA022FD4CA0037D41A
:103FF0008A0240D44A0048D4CA0F55D109025DD480
:10400000C10766D181076FD4410779D4010700F158
:104010008380C10600F18C80800607D504F128005A
:10402000022101F0D9FF002818BF0125002D18BF7B
:1040300001252846BDE8F087D8F8283023F44073DE
:104040001A43C8F828203546CA02CFD5D8F824200C
:10405000636F22F000421A43C8F82420CA00C7D573
:1040600058F81C2CD4F8B83022F480421A4348F88F
:104070001C2C8A02BED5D8F82420E36E22F0807270
:104080001A43C8F824204A00B6D558F81C2C22F44C
:10409000004248F81C2CD4F8BC2058F81C3C1A43A9
:1040A00048F81C2CCA0FA9D0D8F82020636D22F044
:1040B00040521A43C8F820200902A1D5D8F8281088
:1040C000D4F88C2021F440011143C8F82810C1070E
:1040D00098D004F10800002101F0EAFE002818BF82
:1040E0000546606881078FD504F10800012101F0C1
:1040F000DFFE002818BF0546606841077FF586AFE0
:1041000004F10800022101F0D3FE002818BF054683
:10411000606801077FF57DAF04F12800002101F000
:104120005BFF002818BF05466068C1067FF574AFC5
:1041300004F12800012101F04FFF002818BF0546B7
:10414000606880063FF56AAF70E700BF0125CA02CC
:104150007FF54CAF7AE700BFD4F8B4004FF6CF73C9
:1041600058F81C2CC0F2FF0300F4407122F47C527A
:1041700003EA10136FF31F30B1F5407F08BF1A43F5
:10418000002548F81C2CD8F844100843C8F844000F
:10419000FFF7ABBC000000002DE9F04381B0002820
:1041A00000F0208142F200090446C5F20029D9F846
:1041B000000000F00F0081420DD9D9F8000020F076
:1041C0000F000843C9F80000D9F8000000F00F0004
:1041D000884240F00781206844F218464207C5F63D
:1041E00002060AD52269336803F070039A4204D9A3
:1041F000336823F070031A43326002070AD56269FC
:10420000736803F070039A4204D9736823F0700353
:104210001A437260C2060AD5A269736803F4E063A8
:104220009A4204D9736823F4E0631A4372608206E9
:104230000AD5E269B36803F070039A4204D9B368FF
:1042400023F070031A43B26010F002020AD0E36850
:10425000376807F00F07BB4204D9376827F00F070C
:104260003B433360C3073FD0306820F47062D4E929
:1042700001031A433260012856F8182C0AD003288B
:1042800004D002280AD192030BD4ABE0920108D4E7
:10429000A8E000BFD20504D4A4E000BF520740F15B
:1042A000A180884656F8081C21F00701084346F80B
:1042B000080CFEF75DFF054641F2883756F8080CFA
:1042C000616800F03800B0EBC10F09D0FEF750FF75
:1042D000401BB842F2D9032001B0BDE8F08300BF13
:1042E0002068414600F0020252B1E268336803F0F0
:1042F0000F039A4204D2336823F00F031A4332604B
:10430000D9F8002002F00F0291420CD2D9F8002017
:1043100022F00F020A43C9F80020D9F8002002F069
:104320000F028A425ED141070AD52169326802F044
:104330007002914204D2326822F07002114331605F
:1043400001070AD56169726802F07002914204D2D5
:10435000726822F0700211437160C1060AD5A1692A
:10436000726802F4E062914204D2726822F4E06260
:104370001143716080060AD5E069B16801F07001EF
:10438000884204D2B16821F070010843B06000F0A7
:10439000B7F8316847F68A52C0F60002C1F303212C
:1043A000515C336803F00F0301F01F01D25C20FA67
:1043B00001F102F01F0040F20C02C2F2004221FAA9
:1043C00000F0106040F2040040F20802C2F2004027
:1043D000C2F200420068116001B0BDE8F043FEF790
:1043E00013BF00BF012001B0BDE8F0830000000052
:1043F00080B500F085F844F2184147F68A53C5F6B7
:104400000201C0F600030A68C2F303229A5C09683D
:1044100001F00F0102F01F02595C20FA02F201F0D4
:104420001F0040F20C01C2F2004122FA00F00860C5
:1044300040F20801C2F200410A6080BD00000000A5
:1044400080B500F05DF844F2184C47F68A53C5F683
:10445000020CC0F60003DCF80020C2F303229A5CD1
:10446000DCF8001001F00F0102F01F02595CD0408F
:1044700040F20C02C2F2004201F01F0120FA01F1E9
:10448000116040F20802C2F200421060DCF8040041
:10449000C0F30210185C00F01F0021FA00F080BD8C
:1044A00080B500F02DF844F2184C47F68A53C5F653
:1044B000020CC0F60003DCF80020C2F303229A5C71
:1044C000DCF8001001F00F0102F01F02595CD0402F
:1044D00040F20C02C2F2004201F01F0120FA01F189
:1044E000116040F20802C2F200421060DCF80400E1
:1044F000C0F30220185C00F01F0021FA00F080BD1C
:1045000044F20041C5F602010869C0F3C200032865
:1045100016D002280ED0002832D10868800649F251
:104520000000C0F2D03058BF70470968C1F3C10124
:10453000C840704747F64000C0F27D10704700BF8A
:104540008B6A886AD1F82CC04A6BC0F30510E8B1B9
:10455000C2F3CC0203F0030300EE102A9FED2A1AE7
:10456000B8EE400A20EE010A9FED281ADFE803F0BA
:10457000022110210A6892060ED49FED261A18E037
:1045800040F60010C0F23D00704700BF00207047A9
:104590009FED1F1A0DE000BF0A6849F20003C0F248
:1045A000D033C2F3C10223FA02F201EE102AB8EEB0
:1045B000411A0A6B9FED183A6FF35F2202EE102A40
:1045C0005FEACC7203FE000A03EE100A086BB8EE35
:1045D000422AC0F34620B8EE433A013030EE020AD8
:1045E000B7EE002A81EE031A30EE020A21EE000A2D
:1045F00001EE100AB8EE411A80EE010ABCEEC00AC4
:1046000010EE100A704700BF000000390024744A01
:1046100020BCBE4B0024744C0000000000000000D1
:1046200070B3F0B581B00446007844F20046C0078C
:10463000C5F6020626D12078800740F1C280306995
:1046400010F03801B06A3FD0182908BF5FEA8070C7
:104650003AD0E0683168002862D021F0190108439F
:104660003060FEF785FD05463068400748D4FEF708
:104670007FFD401B0228F7D9032001B0F0BD00BF29
:1046800001207047306900F03801B06A102905D068
:1046900018290BD100F00300022807D130688003ED
:1046A000C9D560680028C6D13CE100BF61683068A8
:1046B00000294FD0B1F5A02F44D0B1F5803F5FD194
:1046C00040F4803062E000BF30684007E06802D507
:1046D000002800F02781316821F01901084330607B
:1046E000FEF746FD054600BF3068400708D4FEF7D8
:1046F0003FFD401B02284FF00300F5D901B0F0BD8B
:10470000FEF72EFD41F2030188424FD820697168FF
:10471000402821F47C3151D141F4003050E000BFF9
:1047200021F001003060FEF723FD054630684007A8
:1047300047D5FEF71DFD401B02284FF00300F5D9B9
:10474000DCE700BF40F480203060306840F4803007
:104750001CE000BF20F480303060306820F48020FE
:104760003060FEF705FD0546306880037FF563AFD6
:10477000FEF7FEFC401B64284FF00300F4D9BDE7B0
:1047800020F480303060306820F480203060FEF704
:10479000EFFC0546306880033FF54DAFFEF7E8FCBF
:1047A000401B6428F6D9032001B0F0BD7068216970
:1047B00020F0FE4040EA016002E000BF41EA003024
:1047C00070602078C00654D5306900F03801B06AB6
:1047D000082905D0182919D100F00300012815D1A6
:1047E0003068C00503D5E069802840F09B80FEF763
:1047F000B7FC41F2030188421ED8206A7168202864
:1048000021F0F84132D141F0804031E0E0690028E8
:10481000306819D040F080003060FEF7A9FC0546F2
:104820003068C005E3D4FEF7A3FC401B02284FF01C
:104830000300F5D962E700BFF068216A20F07C50E0
:1048400040EA0160F06014E020F080003060FEF784
:104850008FFC05463068C0050BD5FEF789FC401B70
:1048600002284FF00300F5D948E700BF41EA806015
:104870007060207800073FD42078800656D42078D6
:10488000400769D4656A9DB3306900F03800182884
:1048900040F0A880012DB16A306B43D001F00302D3
:1048A000A36A9A423ED1C1F30511E26A914239D11D
:1048B0000146226B6FF35F21013A914232D1C0F37E
:1048C0004622616B01398A422CD1C0F30642A16BAA
:1048D00001398A4226D1C0F30660E16B0139884272
:1048E00020D1706BA16CC0F3CC00814240F03481C8
:1048F000002001B0F0BD00BF60690028706F41D09A
:1049000040F001007067FEF733FC0546706F8007CA
:10491000B2D4FEF72DFC401B0228F7D9032001B0CA
:10492000F0BD00BF012001B0F0BD00BFA0690028AC
:10493000306845D040F480503060FEF719FC0546E1
:10494000306880049BD4FEF713FC401B0228F7D983
:10495000032001B0F0BD00BFD6F8000440F4807021
:10496000C6F80004FEF704FC054600BFD6F80004B4
:10497000C00519D4FEF7FCFB401B6428F6D90320C0
:1049800001B0F0BD20F001007067FEF7F1FB0546B5
:10499000706F80077FF570AFFEF7EAFB401B0228BF
:1049A0004FF00300F4D9A9E6A168306F002943D085
:1049B000052939D0012957D140F001005AE000BF44
:1049C00020F480503060FEF7D3FB05463068800449
:1049D0007FF555AFFEF7CCFB401B02284FF00300DC
:1049E000F4D98BE6306820F080703060FEF7C0FBB1
:1049F000022D05460CD100BF306880014CD5FEF772
:104A0000B7FB401B02284FF00300F5D976E600BF44
:104A1000306880017FF56CAFFEF7AAFB401B0228CF
:104A20004FF00300F4D969E640F004003067306FBE
:104A300040F001001EE000BF20F001003067306F41
:104A400020F004003067FEF793FB054641F28837FB
:104A5000306F80077FF516AFFEF78AFB401BB84228
:104A60004FF00300F4D949E620F001003067306FC1
:104A700020F004003067FEF77BFB054641F28837E3
:104A8000306F80073FF5FEAEFEF772FB401BB84269
:104A90004FF00300F4D931E604F12807B06A40F280
:104AA000F33188438ECF0843591E40EA02104FF479
:104AB0007E426FF35F21B06202EB47204FF4FE02AB
:104AC00080B2E36B0844A16B02EB01414FF0FE4260
:104AD00001F4FE0102EB0362084402F0FE410844C7
:104AE0003063F06A4FF6F87120F00100F062706BED
:104AF000A26C884340EAC2007063F06A216C20F027
:104B00000C000843F062F06A616C20F00200084378
:104B1000F062F06A40F48030F062F06A40F40030F5
:104B2000F062F06A40F48020F062F06A40F0010028
:104B3000F062306840F080703060FEF719FB044688
:104B4000306880013FF5D4AEFEF712FB001B02284F
:104B50004FF00300F4D9D1E5F06A20F00100F062D3
:104B6000FEF706FB0546FEF703FBA842FBD0706B81
:104B70004FF6F871A26C884340EAC2007063F06A95
:104B800040F00100F062002001B0F0BD0000000024
:104B9000411E0020B0EB116F02D00120704700BF12
:104BA0004EF21002F023CEF2000251604EF6235175
:104BB000CEF200010B700721906011607047000079
:104BC00090F88410012901D1022070472421C0F8F7
:104BD000881001680A680B6822F0005223F0010374
:104BE0000B60002343660A602021C0F8881080F81B
:104BF0008430002070470000D0F88C30202B07D183
:104C000010B504460120002918BF002A02D110BDAA
:104C100002207047E06600202067204602F014FA68
:104C2000002818BF10BDE06E01282DD1206810218A
:104C30000162206850E8000F216840F0100041E850
:104C40000002002A1FBF206850E8000F216840F0D2
:104C500010001CBF41E80002002A17D0206850E86D
:104C6000000F216840F0100041E8000272B1206896
:104C700050E8000F216840F0100041E800020020D9
:104C8000002AD6D1C3E700BF012010BD002010BD0F
:104C9000B0B541F200420068C4F20102904213D064
:104CA00044F60002C4F20002904218BFB0BD40F6C4
:104CB0009434C2F200442046FBF7CAFD40F2585536
:104CC000C2F200450BE000BF40F61444C2F20044BB
:104CD000204601F05DF840F28065C2F20045802276
:104CE00028462146FFF788FFD5F8800040F20F41A3
:104CF000C4F20201006888426FF0080110DC6F22E4
:104D0000C4F20202904221DC3F22C4F2020290422D
:104D100038DC1022C4F2020290425BD0282253E019
:104D200040F26F42C4F2020290421BDC40F23F426A
:104D3000C4F2020290422DDC40F21042C4F20202A0
:104D4000904247D040F228423EE000BF9F22C4F28A
:104D50000202904228DC7022C4F20202904239D052
:104D6000882231E040F29F42C4F20202904223DCEA
:104D700040F27042C4F2020290422BD040F28842CC
:104D800022E000BF4022C4F20202904222D0582208
:104D90001AE000BF40F24042C4F20202904219D031
:104DA00040F2584210E000BFA022C4F2020290423A
:104DB00010D0B82208E000BF40F2A042C4F20202C4
:104DC000904207D040F2B842C4F20202904218BFAB
:104DD0006FF00401026811400160B0BD00000000E6
:104DE000704700000000000090F88420012A01D1E3
:104DF0000220704770B52422C0F888200268D0F8DD
:104E000064E0BEF1000FD2F800C0136823F0010384
:104E10001360936823F0606341EA0301916019D045
:104E2000916847F6B25E9368C0F6000E5B0F47F6D6
:104E3000BA55C1F34266C0F600051EF80340E95CAE
:104E40002301B3FBF1F11EF80630AE5D1B01B3FB8D
:104E5000F6F301E001210123A0F86A102021A0F857
:104E60006830C2F800C0C0F88810002180F88410B3
:104E7000002070BD0000000090F88420012A01D1BC
:104E80000220704770B52422C0F888200268D0F84C
:104E900064E0BEF1000FD2F800C0136823F00103F4
:104EA0001360936823F0604341EA0301916019D0D5
:104EB000916847F6B25E9368C0F6000E5B0F47F646
:104EC000BA55C1F34266C0F600051EF80340E95C1E
:104ED0002301B3FBF1F11EF80630AE5D1B01B3FBFD
:104EE000F6F301E001210123A0F86A102021A0F8C7
:104EF0006830C2F800C0C0F88810002180F8841023
:104F0000002070BD0000000070470000000000009D
:104F10007047000000000000704700000000000023
:104F200070B5016840F62F02CB691A40202A0A6842
:104F30008E680BD102F0200406F080552D1917D091
:104F4000416F69B3BDE87040084700BF40F60F05E8
:104F50002B420DD0012540F22014C1F20005C0F211
:104F6000004406EA050C02EA040515EB0C0525D100
:104F7000DD06C46E16D5012C14D112F0100511D027
:104F800010220A628968490666D4B0F85C10B0F84D
:104F90005E20B0F85E30002B18BF914240F068826E
:104FA00070BD00BFDD0215D516F4800512D04FF498
:104FB00080120A62BDE87040FFF7AABFDD0718BF84
:104FC00012F4807540F02A819D0706F0010E00F171
:104FD00031813AE1190606D502F0800106F4000697
:104FE000891940F0CB82590640F10C8112F0400142
:104FF00000F00881016851E8001F026821F04001BB
:1050000042E80013F3B1016851E8001F026821F083
:10501000400142E80013002B1FBF016851E8001F48
:10502000026821F040011CBF42E80013002B09D0A8
:10503000016851E8001F026821F0400142E80013B6
:10504000002BD7D12021C0F8881000218167BDE84E
:10505000704000F02DBE00BFD0F8802011684B6872
:10506000B0F85C4099B2002900F0C280A14280F003
:10507000BF80A0F85E30D169B1F5807F00F0AC80D0
:10508000016851E8001F026821F4807142E80013B2
:10509000F3B1016851E8001F026821F4807142E811
:1050A0000013002B1FBF016851E8001F026821F4A4
:1050B00080711CBF42E80013002B09D0016851E841
:1050C000001F026821F4807142E80013002BD7D141
:1050D000016851E8021F026821F0010142E8021351
:1050E000F3B1016851E8021F026821F0010142E8B2
:1050F0000213002B1FBF016851E8021F026821F054
:1051000001011CBF42E80213002B09D0016851E8DD
:10511000021F026821F0010142E80213002BD7D1DF
:10512000016851E8021F026821F0400142E80213C1
:10513000F3B1016851E8021F026821F0400142E822
:105140000213002B1FBF016851E8021F026821F003
:1051500040011CBF42E80213002B09D0016851E84E
:10516000021F026821F0400142E80213002BD7D150
:105170002021C0F88C100021C166016851E8001F91
:10518000026821F0100142E80013F3B1016851E810
:10519000001F026821F0100142E80013002B1FBF1E
:1051A000016851E8001F026821F010011CBF42E8AD
:1051B0000013002B09D0016851E8001F026821F09C
:1051C000100142E80013002BD7D1D0F8801004461C
:1051D0000846FCF7C5F9204602210167B0F85C10CB
:1051E000B0F85E20891A89B2BDE87040FFF750BD63
:1051F0008C427FF4D5AED269B2F5807F7FF4D0AE19
:10520000B6E100BF190240F1C58112F0804100F003
:10521000C181BDE87040FFF777BE00BF01250D6278
:10522000D0F8905045F00105C0F890509D0706F069
:10523000010E0AD5BEF1000F07D002240C62D0F88F
:10524000904044F00404C0F890405C070AD5BEF1D9
:10525000000F07D004250D62D0F8905045F00205EC
:10526000C0F890501D070CD502F0200555EA0C053A
:1052700007D008250D62D0F8905045F00805C0F819
:1052800090501D050BD512F0806508D04FF40065D5
:105290000D62D0F8905045F02005C0F89050D0F83D
:1052A0009050002D3FF47CAE9B060BD502F02002FF
:1052B00006F08053D21805D0426F1AB104469047C9
:1052C00020462168D0F89020896801F0400102F062
:1052D0002802891806D10446FFF71EFE0020C4F8F4
:1052E000900070BD016851E8001F026821F49071C0
:1052F00042E80013F3B1016851E8001F026821F48D
:10530000907142E80013002B1FBF016851E8001F95
:10531000026821F490711CBF42E80013002B09D0F1
:10532000016851E8001F026821F4907142E80013FF
:10533000002BD7D14FF6FE71CEF6FF71026852E80E
:10534000022F03680A4043E80226DEB1026852E8F1
:10535000022F03680A4043E80226002E1FBF02689E
:1053600052E8022F03680A401CBF43E80226002EC1
:1053700008D0026852E8022F03680A4043E8022678
:10538000002EDBD1C16E012927D1016851E8001F31
:10539000026821F0100142E80013F3B1016851E8FE
:1053A000001F026821F0100142E80013002B1FBF0C
:1053B000016851E8001F026821F010011CBF42E89B
:1053C0000013002B09D0016851E8001F026821F08A
:1053D000100142E80013002BD7D12021C0F88C1017
:1053E0000021C166026841679168490640F1CE809C
:1053F000016851E8021F026821F0400142E80213EF
:10540000F3B1016851E8021F026821F0400142E84F
:105410000213002B1FBF016851E8021F026821F030
:1054200040011CBF42E80213002B09D0016851E87B
:10543000021F026821F0400142E80213002BD7D17D
:10544000D0F88010002900F0A18046F2597204467D
:105450000846C0F600020A65FCF716FB00283FF478
:105460009FADD4F88000016DBDE87040084700BFD3
:10547000891A026852E8002F036822F4907243E808
:105480000026F6B1026852E8002F036822F49072F9
:1054900043E80026002E1FBF026852E8002F036871
:1054A00022F490721CBF43E80026002E09D0026847
:1054B00052E8002F036822F4907243E80026002E81
:1054C000D7D14FF6FE72CEF6FF72036853E8023F63
:1054D0000668134046E80235DDB1036853E8023F31
:1054E0000668134046E80235002D1FBF036853E8E5
:1054F000023F066813401CBF46E80235002D08D065
:10550000036853E8023F0668134046E80235002D61
:10551000DBD12022C0F88C200022C26642670268DC
:1055200052E8002F036822F0100243E80026F6B18B
:10553000026852E8002F036822F0100243E80026B8
:10554000002E1FBF026852E8002F036822F01002ED
:105550001CBF43E80026002E09D0026852E8002F45
:10556000036822F0100243E80026002ED7D189B24A
:1055700002220267BDE87040FFF78ABB816F0029F5
:105580003FF40EADBDE87040084700BFBDE8704075
:10559000FFF7C2BCD9017FF503ADB2F1FF3FC8BF31
:1055A00070BDBDE87040FFF71BBC000000000000AC
:1055B00010B5D8B10446D0F8880028B9002084F886
:1055C0008400204600F028F82420C4F888002068D1
:1055D000A16A0268002922F00101016002D0204680
:1055E00000F092FF204601F0EBFA08B1012010BD57
:1055F0002068416821F490414160816821F02A01CE
:105600008160016841F0010101602046BDE8104061
:1056100000F0EABF000000002DE9F041B8B0002121
:105620000446CDE93611CDE93411339102A8C021E9
:10563000FAF78EFF40F6FF712068C4F2010188423C
:105640007ADC44F60001C4F20001884200F0F080E8
:1056500044F60041C4F20001884240F05D8102A896
:105660000026039602250295FEF70EF808B1FBF717
:10567000F7FD44F2E04040F21008C5F60200C4F223
:105680000208816841F400218160816801F40021F1
:1056900001910199016841F001010160006833A99D
:1056A00000F0010001900198032061C140F2004127
:1056B0000820C5F602013790A1F5806033A936961F
:1056C000FDF772FC40F2041508F13000C2F200450B
:1056D0004FF4806728603F20C5E901062846EE6048
:1056E000C5E90476C5E90666C5E90866FCF734FF36
:1056F00008B1FBF7B5FDC4F8805008F14800AC6371
:1057000040F27C15C2F2004528604020C5E9010046
:1057100000206862C5E90307C5E90500C5E907007F
:105720002846FCF719FF00284FF034064FF07C079D
:1057300040F0E680E6E000BF41F20001C4F2010162
:10574000884200F0ED8041F20041C4F2010188423C
:1057500040F0E2800120029002A800260396FDF7A7
:1057600093FF08B1FBF77CFD44F2E04040F21008E3
:10577000C5F60200C4F20208016941F0200101618E
:10578000016901F0200101910199016841F00401D2
:105790000160006840F2004100F004000190C5F68D
:1057A00002010198C020339002203696CDE93406DC
:1057B0000720379001F5806033A9FDF7F5FB40F233
:1057C000D4354720C2F200454FF48067C5E9010691
:1057D0002846C5F80080EE60C5E90476C5E906668E
:1057E000C5E90866FCF7B8FE08B1FBF739FDC4F857
:1057F000805008F11800AC6340F24C45C2F20045FD
:105800002860482068604020A8600020C5E90307A0
:10581000C5E90500C5E9070068622846FCF79CFE5B
:1058200000284FF047064FF07C0769D16AE000BFBF
:1058300002A80026039602250295FDF725FF08B170
:10584000FBF70EFD44F2E04040F21008C5F60200FE
:10585000C4F20208816841F480218160816801F40A
:10586000802101910199016841F002010160006805
:1058700033A900F00200019001984FF4406061C12B
:105880000720379040F2004033A9C5F60200369653
:10589000FDF78AFB40F25C3508F16000C2F200457A
:1058A0004FF4806728602E2068604020C5E902061A
:1058B0002846C5E90476C5E90666C5E90866FCF729
:1058C0004BFE08B1FBF7CCFCE56708F17800AC6350
:1058D00040F2E425C2F2004528602D2068600020D7
:1058E000C5E90200C5E90470C5E90600C5E908007C
:1058F0002846FCF731FE4FF027064FF0800708B12D
:10590000FBF7AEFC002100223046E551AC63FDF709
:1059100017FD3046FDF700FD38B0BDE8F08100BF4F
:105920000120029002A800260396FDF7ADFE08B103
:10593000FBF796FC44F2E04040F21008C5F6020086
:10594000C4F20208016941F010010161016901F02E
:10595000100101910199016841F0020101600068A4
:1059600033A900F00200019001984FF440403390B9
:105970000220CDE934060420379040F200403696EC
:10598000C5F60200FDF710FB40F2F41508F1900097
:10599000C2F200454FF4806728602920C5E901065E
:1059A0002846EE60C5E90476C5E90666C5E90866DD
:1059B000FCF7D2FD08B1FBF753FCC4F8805008F1A6
:1059C000A800AC6340F26C25C2F2004528602A2092
:1059D00068604020A8600020C5E90307C5E905000C
:1059E000C5E9070068622846FCF7B6FD00284FF0BD
:1059F00025064FF07C077FF483AF83E700000000AB
:105A00007047000000000000704700000000000028
:105A10002DE9F04381B00446D0F88800202807D152
:105A20000120002918BF002A06D101B0BDE8F0838B
:105A3000022001B0BDE8F0831D460E460020C4F8E8
:105A400090002120C4F888001746FDF791FBA4F8C8
:105A500054708146A4F85670A168B1F5805F02D1F8
:105A60002069002866D037460020B4F85610002977
:105A7000216867D06A1C28D0002D53D0804600BF13
:105A8000C86900060AD4FDF773FBA0EB0900A84221
:105A900000F2848021680868F2E700BF17B117F8A8
:105AA000010B04E038F8020B00276FF35F208862D7
:105AB000B4F856000138A4F85600B4F8560000288F
:105AC000DED13FE0CA69120609D4CA69120606D4BB
:105AD000CA6912065CBFCA695FEA0262F2D51FB1E9
