:020000040800F2
:100000007009002065020008E1200008F51A0008C8
:10001000DD20000839050008F12300080000000079
:10002000000000000000000000000000E9200008BF
:100030003D05000800000000E5200008ED20000854
:100040007F0200087F0200087F0200087F0200088C
:100050007F0200087F0200087F0200087F0200087C
:100060007F0200087F0200087F0200087F0200086C
:100070007F0200087F0200087F0200087F0200085C
:100080007F0200087F0200087F02000800000000D5
:100090000000000000000000000000007F020008D7
:1000A0007F0200087F0200087F0200087F0200082C
:1000B0007F0200087F0200087F0200087F0200081C
:1000C0007F0200087F0200087F0200087F0200080C
:1000D0007F020008E52300087F02000800000000FE
:1000E0007F0200087F0200087F0200080000000075
:1000F0000000000000000000000000007F02000877
:10010000000000007F0200087F0200087F02000854
:1001100000000000000000000000000000000000DF
:100120007F0200087F0200087F0200087F020008AB
:100130007F02000800000000000000000000000036
:100140000000000000000000000000007F02000826
:100150007F0200087F0200087F0200087F0200087B
:100160007F0200087F02000800000000000000007D
:10017000000000000000000000000000000000007F
:10018000000000007F0200080000000000000000E6
:100190007F0200087F02000800F002F800F052F829
:1001A00014A696E8000CB244B344DA4501D100F03D
:1001B00049F8BAE80F000FA696E83000A5EB040551
:1001C00004EB0607AAEB0704A7F101074FEA151590
:1001D0004FEA3414A4F10104AC4201D300F032F828
:1001E00013F0010F18BFFB1A43F0010300F001F8F0
:1001F000DBE71847E834000008350000103A24BF58
:1002000078C878C1FAD8520724BF30C830C144BF7B
:1002100004680C6070470000704700000023002451
:1002200000250026103A28BF78C1FBD8520728BF06
:1002300030C148BF0B6070471FB502F088FB1FBD7F
:1002400010B510BD00F03DF91146FFF7F5FF02F0C3
:10025000D1F800F05BF903B4FFF7F2FF03BC00F044
:1002600063F900000948804709480047FEE7FEE7B8
:10027000FEE7FEE7FEE7FEE7FEE7FEE7FEE7FEE756
:1002800004480549054A064B70470000DD21000877
:1002900099010008700300207009002070050020FB
:1002A0007005002053EA020C00F069802DE9F04B44
:1002B0004FF00006002B1FBFB3FA83F503FA05F4D5
:1002C00024FA05F65E4012BF1643B2FA82F502FA2E
:1002D00005F4C5F120051EBF22FA05FC44EA0C0412
:1002E000203556EA044C4FEA144418BF641C4FF002
:1002F00000084FF00009904271EB030C39D300293C
:1003000019BFB1FA81F701FA07F6B0FA80F700FADF
:1003100007F6C7F120071EBF20FA07FC46EA0C06C5
:100320002037B6FBF4FCA7EB0507103F07F01F0BC7
:10033000CBF120062CFA06F60CFA0BFB44BFB346B1
:100340000026202FA4BF5E464FF0000B5BEA060C90
:1003500008BF4FF0010B19EB0B0948EB0608ABFB8C
:10036000027C06FB02CC0BFB03CCC01B71EB0C0127
:10037000C1E70B46024641464846BDE8F08B13B53F
:10038000084318BF4FF0FF300146AFF30080BDE8CF
:100390001C40704740EA0103024630B59B0710D16C
:1003A0004FF0013400E008C208C91D1B9D4315EA47
:1003B000C41FF8D013F0FF0102F8011B0DD01B0A77
:1003C000F8E711F8013B002B02F8013B05D011F8CA
:1003D000013B002B02F8013BF3D130BD02F0FF03DB
:1003E00043EA032242EA024200F002B84FF0000260
:1003F00000B5134694469646203922BFA0E80C501B
:10040000A0E80C50B1F12001BFF4F7AF090728BFF5
:10041000A0E80C5048BF0CC05DF804EB890028BF71
:1004200040F8042B08BF704748BF20F8022B11F09A
:10043000804F18BF00F8012B70470000000000003B
:1004400030B44FF0013C50F8042B51F8043BCCFA87
:1004500052F4D51A20D1FCB950F8042B51F8043BC2
:10046000CCFA52F4D51A17D1B4B950F8042B51F87C
:10047000043BCCFA52F4D51A0ED16CB950F8042BC7
:1004800051F8043BCCFA52F4D51A05D1002CDAD03D
:1004900030BC4FF00000704729BAB1FA81F111F079
:1004A0001801D1F120008440F2D1CA40CB4012F0B3
:1004B000FF0213F0FF0330BCD01A7047704770473B
:1004C0007047754600F02CF8AE4605006946534665
:1004D00020F00700854618B020B5FFF7D1FEBDE833
:1004E00020404FF000064FF000074FF000084FF09B
:1004F000000BAC46ACE8C009ACE8C009ACE8C009E8
:10050000ACE8C00921F007018D46704710B50446DC
:10051000AFF300802046BDE81040FFF79CBE00000E
:10052000004870472800002001491820ABBEFEE7B4
:100530002600020070470000FEE700007047000040
:10054000002472B6C4F2020420460421012200F005
:100550004BF9642000F064F820460421002200F0EA
:1005600043F9642000F05CF8EEE7000070B5866D9A
:10057000044600F03FF994F83510022928D10546C9
:100580002068216C026822F016020260426922F0A3
:100590008002426109B9A16C19B1016821F008011A
:1005A0000160016821F00101016000BF206800685E
:1005B000C00715D000F01EF9401B0628F6D32020F6
:1005C0006065032084F83500002184F8341070BD84
:1005D000802060650120002184F8341070BD00BFC8
:1005E000E06D3F2101FA00F0B060012084F8350091
:1005F0000020002184F8341070BD000090F8351000
:10060000022909D1052180F835100068016821F020
:100610000101016000207047802141650120704781
:10062000B0B5044600F0E6F8054640F20000C2F21C
:1006300000000078611C18BF044400BF00F0DAF825
:10064000401BA042FAD3B0BD2DE9F04F83B000F1BA
:10065000200200F13E4741F20005009207F1FF77CA
:10066000C4F2020507224FEAB726A84208BF0422B7
:1006700000254FF000084FF00009042E38BF4FEA64
:10068000B72201920AE000BF09F1010908F102084E
:10069000B9F1100F05F1040500F0A2800F680122E6
:1006A00002FA09FE17EA0E0AEED0D1F804C00322BE
:1006B0000CF003077E1E02FA08F4012E6FEA040B09
:1006C00012D88468CE6804EA0B0406FA08F63443AC
:1006D0008460446824EA0E06CCF3001404FA09F49A
:1006E0002643466004E000BF032F01D103271EE02C
:1006F000C6688C6806EA0B0604FA08F42643022F43
:10070000C66014D16FF00302009E02EA590756F842
:1007100007C005F01C040F220B69A2402CEA02025C
:10072000A3401A43F251D1F804C00CF00307026849
:1007300007FA08F302EA0B021A431CF4403F026076
:10074000A2D0002243F644030292C4F202031A68C4
:1007500043F6004442F480421A601A68C4F201046D
:1007600002F480420292029A29F003024FF6084CEA
:100770002244CFF6FF7C52F80C3005F00C070F2610
:10078000BE40B343019E06FA07F73B4342F80C30E4
:10079000A2684B6842EA0A0743F60C4CDE0258BFD7
:1007A00022EA0A07A760C4F2010CDCF800209E02CE
:1007B00042EA0A0758BF22EA0A07CCF800706268CA
:1007C0009E0342EA0A0758BF22EA0A0767602268C6
:1007D000DB0342EA0A0758BF22EA0A07276053E709
:1007E00003B0BDE8F08F0000002A08BF0904816152
:1007F0007047000040F26830C2F2000000687047A5
:10080000002804BF01207047F0B581B0044690F87D
:100810003D0028B9002084F83C00204600F050F943
:10082000242084F83D002068016821F00101016066
:10083000016841F400410160016821F40041016058
:1008400000F0E2FA636848F2A16CC0F2010C40F6D5
:100850000011C0F23D0163453CBF48F28041C0F247
:100860001E01884202D2012001B0F0BD4DF6836125
:10087000C4F21B31A0FB01122168970CD1F804E0EF
:100880004FF496762EF03F0545EA92454D6077434A
:1008900048F638160D6AC0F24106A7FB067625F029
:1008A0003F07634538BF960C721C3A430A62CA6917
:1008B00048F2A0664CF6FF77C0F20106B34222EA86
:1008C00007020BD801385B00B0FBF3F001306FF387
:1008D0001F30042898BF04201BE000BFA768013820
:1008E00057B119277B43B0FBF3F001306FF31F3092
:1008F00070B100F5804007E003EB4303B0FBF3F079
:1009000001306FF31F3018B100F5004001E000BF67
:1009100001201043C8610868D4E9072320F0C00013
:10092000104318430860886848F2FF3204F10C074E
:1009300090438CCF18431043A6698860C86820F0A4
:10094000FF0038433043C860086840F00100086089
:1009500000202021206484F83D10206384F83E00AC
:1009600001B0F0BD2DE9F04383B0994616460F461D
:100970000446FFF73FFF94F83D10202924D1054697
:10098000206800BF816989071AD5FFF733FF411B33
:1009900020681A29F6D381698907F3D50020202120
:1009A000206384F83D1084F83E00216C41F0200162
:1009B000216484F83C00022003B0BDE8F08300BF4E
:1009C00094F83C10012903D1022003B0BDE8F08364
:1009D000012284F83C200368DDE90B180A9ADB0742
:1009E00003D1036843F001030360036823F4006349
:1009F0000360212084F83D00402084F83E00002060
:100A0000206462626185608D394620850020CFF6C2
:100A1000FF70E062204632464B46CDE9008501F08A
:100A20006BF818B1012003B0BDE8F083208D98B9B0
:100A3000204641462A4601F0C3F888B3206C0428BA
:100A4000F0D12068016841F400710160012003B019
:100A5000BDE8F0830004EBD0204641462A4601F071
:100A60005FFA0028EAD1616A2268084610F8013B63
:100A70001361238D6062581E2085678D013F678555
:100A800057697F07E6D50704E4D048781061881CD1
:100A90006062981E2085618D01396185DAE700BFAB
:100AA0002068016841F400710160202084F83D0055
:100AB000002084F83E0084F83C0003B0BDE8F083D9
:100AC000B0B586B045F200410068C4F200010024D0
:100AD00088420594CDE903440294019402D006B003
:100AE000B0BD00BF43F630050094C4F2020528688B
:100AF00040F002002860286800F002000090009892
:100B0000C02001901220CDE90204032004900420AB
:100B1000059001F5D83001A9FFF796FD00942869EA
:100B200040F400102861286900F40010009000983B
:100B300006B0B0BD40F2000040F26831C2F20000E1
:100B4000C2F2000100780A68104408607047000093
:100B500080B543F60040C4F20200016841F4007120
:100B60000160016841F480610160016841F48071B5
:100B70000160032000F086F80F2000F005F800F077
:100B800027F8002080BD000070B540F20006C2F2D8
:100B9000000640F208013278C2F200014FF47A7385
:100BA0000968B3FBF2F20446B1FBF2F1084600F02B
:100BB00061FB0F2C4FF0010508D838B94FF0FF301A
:100BC00021460022002500F031F87460284670BDEF
:100BD00082B0002043F640010190C4F202014A684D
:100BE00042F480424A604A6802F480420192019ACB
:100BF0000090086840F080500860086800F080505D
:100C00000090009802B07047002848BF704700F07D
:100C10001F01012202FA01F11C2202EAD0004EF269
:100C20000012CEF2000281507047000010B54EF65F
:100C30000C5CCEF2000CDCF80030C3F3022E8EF018
:100C40000704042C28BF0424BEF103034FF0FF3E29
:100C50000EFA04F438BF0023A14399400EFA03F3BF
:100C60009A43114300F00F0200F160430901043A76
:100C700003F564436244002848BF02F10C03197075
:100C800010BD00004EF60C51CEF200010A684FF67E
:100C9000FF031A4060F30A2242F0806040F0FD70CA
:100CA00008607047002804BF012070472DE9F0411B
:100CB00043F60808C4F202080446D8F8F8030D46C3
:100CC00000F00700814207D988F8F853D8F8F803F4
:100CD00000F00700A84277D12068810717D54107A7
:100CE00005D5D8F8001041F4E051C8F8001001070C
:100CF00005D5D8F8001041F46041C8F80010D8F8C4
:100D00000010A26821F0F0011143C8F80010C007DC
:100D100040D1D8F8F80300F00700854207D288F8E0
:100D2000F853D8F8F80300F00700A8424CD1206827
:100D3000410707D5D8F80010E26821F4E0511143CB
:100D4000C8F80010000708D5D8F80000216920F481
:100D5000604040EAC100C8F8000000F07DF8D8F813
:100D6000001042F66812C1F30311C0F60002515C94
:100D700040F2080220FA01F140F20400C2F2000041
:100D80000068C2F200021160FFF7FEFE0020BDE81D
:100D9000F08100BF6068811E022907D258F8081C44
:100DA00089015CBF0120BDE8F08111E0012807D175
:100DB00058F8081C89035CBF0120BDE8F08107E0FA
:100DC00058F8081C890703D40120BDE8F08100BF52
:100DD000D8F8001021F003010843C8F80000FFF71D
:100DE00009FD064641F28837D8F80000616800F036
:100DF0000C00B0EB810F8CD0FFF7FCFC801BB842DD
:100E0000F2D90320BDE8F08140F2080043F6080162
:100E1000C2F20000C4F202010068096842F67812CA
:100E2000C1F38221C0F60002515CC8407047000047
:100E300040F2080043F60801C2F20000C4F20201C9
:100E40000068096842F67812C1F34231C0F6000228
:100E5000515CC8407047000010B543F60404C4F26A
:100E600002046168C1F3810142F20040C0F2F40063
:100E7000DFE801F002040A0210BD00BF47F640009F
:100E8000C0F27D1010BD00BF2068216823684902B0
:100E900047F64001C0F27D1100F03F02C3F3881015
:100EA0005CBF42F20041C0F2F401A1FB000100234B
:100EB000FFF7F8F921680222C1F3014102EB410179
:100EC000B0FBF1F010BD0000002804BF0120704706
:100ED0002DE9F04182B00446007843F60006C007D1
:100EE000C4F202060CD0B06800F00C00042840F0F8
:100EF00081803068800303D56068002800F0688135
:100F0000207880071BD5B06810F00C0F09D0B068AE
:100F100000F00C00082840F087807068400200F163
:100F200083803068800703D5E068012840F0508155
:100F30003068216920F0F80040EAC1003060207874
:100F4000000713D4207840072AD4A569002D00F0AB
:100F50003A81B06800F00C00082840F0A580012D0F
:100F600040F00E81012002B0BDE8F08160690028E8
:100F700000F082800020C4F247200121C0F8801ECA
:100F8000FFF738FC054600BF706F8007DAD4FFF723
:100F900031FC401B0228F7D9032002B0BDE8F081E4
:100FA000306C5FEAC0080AD400200190306C40F039
:100FB00080503064306C00F080500190019847F20E
:100FC0000007C4F200073868C00547D4386840F409
:100FD00080703860FFF70EFC054600BF3868C0051A
:100FE0003CD4FFF707FC401B0228F7D9032002B0CE
:100FF000BDE8F081B06800F00C00082803D17068EB
:1010000040023FF576AF61683068B1F5803F07D0A8
:10101000B1F5A02F40F09A8040F480203060306815
:1010200040F4803030609AE0E068002840F2000030
:10103000C4F247205CD001210160FFF7DBFB0546CD
:10104000306880073FF574AFFFF7D4FB401B0228E0
:10105000F6D9032002B0BDE8F08100BFA168306F6F
:10106000012905D0052955D140F004003067306FC3
:1010700040F00100306756E00020C4F24720002114
:10108000C0F8801EFFF7B6FB054600BF706F8007F3
:101090007FF558AFFFF7AEFB401B0228F6D90320BF
:1010A00002B0BDE8F08100BF0027C4F2472700204E
:1010B0003866FFF79FFB022D05460DD13068800191
:1010C00040F18A80FFF796FB401B02284FF0030097
:1010D000F4D902B0BDE8F0813068800173D5FFF724
:1010E00089FB401B02284FF00300F5D9F1E700BF50
:1010F00000210160FFF77EFB054600BF30688007D6
:101100007FF51DAFFFF776FB401B02284FF0030071
:10111000F4D9DEE720F001003067306F002920F0BD
:10112000040030677AD0FFF765FB054641F2883747
:10113000306F800700F18480FFF75CFB401BB842F2
:10114000F6D9032002B0BDE8F08100BF20F4803062
:1011500030603068002920F4802030607AD0FFF7BA
:1011600049FB0546306880033FF5CAAEFFF742FBF6
:10117000401B6428F6D9032002B0BDE8F08100BF0F
:101180007068E16900F480028A4221D1216A00F08E
:101190003F028A421CD147F6C071626A0140B1EB3E
:1011A000821F15D1A16A4FF6FF73C903994300F45A
:1011B0004032A1F580318A420AD1E16A00F07060C4
:1011C000B0EB016F04D1002002B0BDE8F08100BF98
:1011D000012002B0BDE8F08104F11C052FCD0843C9
:1011E00040EA8210D9034FF6FF729143A1F5803196
:1011F00040EA05600843706001203866FFF7FAFA9C
:10120000044600BF30688001DDD4FFF7F3FA001B0D
:1012100002284FF00300F5D95BE700BFFFF7EAFAB9
:10122000054641F2883700BF306F800708D5FFF7C9
:10123000E1FA401BB8424FF00300F5D949E700BF7F
:10124000B8F1000F3FF581AE306C20F08050306473
:101250007BE600BFFFF7CEFA054600BF306880038B
:101260007FF54EAEFFF7C6FA401B64284FF003002F
:10127000F4D92EE7411E0020B0EB116F1CBF0120F6
:1012800070474EF21002CEF2000251604EF623512A
:10129000CEF20001F0230B700721906011607047BF
:1012A0007047000070470000B0B582B001680A685E
:1012B000CC684B6902F02F05202D04F0200505D1E4
:1012C00025B102B0BDE8B04000F098BF5FEA027CF3
:1012D0001EBF03F0010E04F4907313EB0E0341D113
:1012E000036BD50618D5012B16D114F0100313D0BB
:1012F000002201920A6801924A680192019A4969A2
:1013000049064BD4818DC28DC38D002B18BF9142ED
:1013100040F0068202B0B0BD13062DD514F0800354
:101320002AD090F84120212AF4D18268B2F5805F5A
:1013300003D10269002A00F07982026A531C036219
:1013400012784A60C28C013A1304C284E2D1C868A0
:1013500020F08000C860C86840F04000C86002B05B
:10136000B0BD00BFD30718BF14F4807340F0E28013
:10137000530700F1E580EAE05206CBD514F04002B5
:10138000C8D0CA6822F04002CA60202180F841100B
:1013900002B0BDE8B04000F0ABBB00BFC26B11684B
:1013A0004B68858D99B2002900F0B480A94280F085
:1013B000B180C385D169B1F5807F00F0A08001685C
:1013C00051E8031F026821F4807142E80313DBB186
:1013D000016851E8031F026821F4807142E8031399
:1013E00093B1016851E8031F026821F4807142E85B
:1013F00003134BB1016851E8031F026821F48071A7
:1014000042E80313002BDAD1016851E8051F026896
:1014100021F0010142E80513BBB3016851E8051F43
:10142000026821F0010142E8051373B3016851E835
:10143000051F026821F0010142E805132BB3016882
:1014400051E8051F026821F0010142E80513002B55
:10145000DAD11AE0016851E8051F026821F0400165
:1014600042E80513DBB1016851E8051F026821F06D
:10147000400142E8051393B1016851E8051F026875
:1014800021F0400142E805134BB1016851E8051F06
:10149000026821F0400142E80513002BDAD1202137
:1014A00080F8421000210163016851E8031F0268BF
:1014B00021F0100142E80313DBB1016851E8031F7A
:1014C000026821F0100142E8031393B1016851E86A
:1014D000031F026821F0100142E803134BB10168B9
:1014E00051E8031F026821F0100142E80313002BAA
:1014F000DAD1C16B04460846FFF738F820460221CE
:101500004163818DC28D891A89B202B0BDE8B040B5
:10151000FFF7C6BE8D427FF4FDAED269B2F5807F83
:101520007FF4F8AE0222426302B0BDE8B040FFF79C
:10153000B7BE00BF436C43F001034364530706D5B5
:10154000BEF1000F03D0436C43F0020343649307E2
:1015500006D5BEF1000F03D0436C43F0040343648F
:10156000BCF1000F06D55EEA050303D0436C43F0DF
:1015700008034364436C002B3FF4CCAE920605D5C0
:1015800025B1044600F03AFE216820464969426CC4
:1015900001F0400102F00802891800F0B98000BF94
:1015A000016851E8031F026821F4907142E80313B7
:1015B000BBB3016851E8031F026821F4907142E84F
:1015C000031373B3016851E8031F026821F490719B
:1015D00042E803132BB3016851E8031F026821F4AA
:1015E000907142E80313002BDAD11AE0016851E848
:1015F000051F026821F0010142E80513DBB1016813
:1016000051E8051F026821F0010142E8051393B17A
:10161000016851E8051F026821F0010142E8051345
:101620004BB1016851E8051F026821F0010142E851
:101630000513002BDAD1016B012924D1016851E88F
:10164000031F026821F0100142E80313DBB10168B7
:1016500051E8031F026821F0100142E8031393B11F
:10166000016851E8031F026821F0100142E80313EA
:101670004BB1016851E8031F026821F0100142E8F4
:101680000313002BDAD1202180F8421000210163DE
:1016900001684969490640F1C380016851E8051FA6
:1016A000026821F0400142E80513DBB1016851E80E
:1016B000051F026821F0400142E8051393B101685B
:1016C00051E8051F026821F0400142E805134BB1C3
:1016D000016851E8051F026821F0400142E8051346
:1016E000002BDAD1C16B002900F09A8042F2F1128E
:1016F000C0F60002044608460A65FEF77FFF002890
:101700003FF408AEE06B016D02B0BDE8B0400847A1
:101710000446FFF7C7FD0020606402B0B0BD00BF03
:10172000891A00BF026852E8032F036822F49072FE
:1017300043E80325BDB3026852E8032F036822F48F
:10174000907243E8032575B3026852E8032F0368DB
:1017500022F4907243E803252DB3026852E8032F68
:10176000036822F4907243E80325002DDAD11AE0D1
:10177000026852E8052F036822F0010243E80525BC
:10178000DDB1026852E8052F036822F0010243E848
:10179000052595B1026852E8052F036822F0010281
:1017A00043E805254DB1026852E8052F036822F091
:1017B000010243E80525002DDAD1202280F84220DD
:1017C00000220263026852E8032F036822F010022D
:1017D00043E80325DDB1026852E8032F036822F0D5
:1017E000100243E8032595B1026852E8032F03680D
:1017F00022F0100243E803254DB1026852E8032F9E
:10180000036822F0100243E80325002DDAD10222FA
:1018100089B2426302B0BDE8B040FFF741BD00BFEE
:1018200002B0BDE8B040FFF73DBD00BF026A32F82C
:10183000023B6FF35F234B60026283E5002804BF25
:101840000120704710B5044690F8410028B90020E7
:1018500084F84000204600F021F8242084F841005C
:101860002068C16821F40051C160204600F046FDA7
:101870002068016921F490410161416921F02A0148
:101880004161C16841F40051C160002020216064C1
:1018900084F8411084F84210606310BD80B586B0B2
:1018A000006841F20042C4F2010200219042CDE9F9
:1018B0000411CDE90211019138D041F20001C4F2C6
:1018C000010188425AD1002043F630010090C4F251
:1018D00002014A6942F010024A614A6902F01002AC
:1018E0000092009A00900A6842F001020A600968BA
:1018F00001F00101009100994FF4C06101910221B2
:10190000CDE9021003200490072005900020C4F2C6
:10191000020001A9FEF798FE252000210022FFF712
:1019200085F92520FFF770F906B080BD43F6300039
:101930000091C4F20200426942F020024261426911
:1019400002F020020092009A0091026842F0010227
:101950000260006800F00100009000984FF4C05051
:1019600001900220CDE90201032004900820059097
:101970000020C4F2020001A9FEF766FE06B080BD99
:1019800090F84230202B07D100294FF0010318BFF7
:10199000002A05D11846704702231846704700BF39
:1019A00000230363816222218285C285436480F81B
:1019B00042100169006819B1C16841F48071C160C9
:1019C000416941F001014161C16841F02001C160FC
:1019D0001846704701460020C4F202000968A0F5CD
:1019E0007042914218BF704770B582B040F28806CD
:1019F000C2F200063178012912D0C9BBF1781A2948
:101A000036D1012131800021C6E90111C6E9031157
:101A1000C6E90511C6E907110421012226E000BF2D
:101A2000F1780A2916D172780021351D3170A95438
:101A300004210022FEF7D8FE06F1240428462146A0
:101A4000FEF7FEFC00B320462946FEF7A3FC01206A
:101A5000B0700DE072781E2A04D8501C7070B01857
:101A6000017105E00021317004210022FEF7BCFE67
:101A700040F22010F11CC2F20000012202B0BDE8C9
:101A80007040FFF77DBF00BFB0780130C1B20329BD
:101A9000B070EDD10020002100F00CFD01200021EC
:101AA000012500F007FD0220002100F003FD0320C6
:101AB000002100F0FFFC0420002100F0FBFC0520C9
:101AC000002100F0F7FC0620002100F0F3FC0720C5
:101AD000002100F0EFFC00200821224601230095A0
:101AE00000F0BAFE00F01AFF00F018FFC0E7000097
:101AF00070470000FEE700002DE9F04383B0044684
:101B000000680F4601680A9D0B9E41F4807199465A
:101B10009046016020464FF0011100222B460096AE
:101B200000F0ACF850B120680068C00544BF4FF425
:101B300000702064032003B0BDE8F083206807F044
:101B4000FE0101610221C0F2010120462A4633460E
:101B500000F07AF920B1012003B0BDE8F08300BFA6
:101B6000002002902068324641690291806929462E
:101B700002900298204600F0D3F958B1206C042856
:101B8000E9D12068016841F400710160012003B0CF
:101B9000BDE8F0832068B9F1010F0AD04FEA18219F
:101BA000016120462946324600F0BAF90028E5D105
:101BB00020685FFA88F10161002003B0BDE8F0837E
:101BC00070B50368044653F8140F400711D40E464D
:101BD000481C29D086BB00BF1868400527D4FEF7F3
:101BE00009FE236853F8140F400737D518684007DB
:101BF000F2D5002070BD00BF18684007F9D41868FE
:101C0000400514D418684007F3D4186840050ED472
:101C100018684007EDD41868400508D418684007D4
:101C20004FF0000048BF70BD18684005E4D56FF460
:101C300080601860042012E0154603E053F8140F8A
:101C40004007D6D418684005F1D4FEF7D3FD401BF9
:101C50002368B042F2D958694007EFD42020002110
:101C60002022216384F83D2084F83E10226C10432A
:101C70002064012084F83C1070BD00002DE9F04183
:101C8000054600681E46144601F47F0201338FB2F8
:101C900042D0DDF81880B2F5803F40F0878040697F
:101CA0003840C01BB0FA80F04009844240F0C88040
:101CB0004EB924E040693840C01BB0FA80F04009BA
:101CC000844240F0BD80FEF795FDA0EB0801286836
:101CD000B142EFD941693940C91BB1FA81F14909D3
:101CE0008C42E7D19BE000BF40693840C01BB0FA8E
:101CF00080F0400984424FF0000040F0A280FEF7DF
:101D000079FD286841693940C91BB1FA81F1490957
:101D10008C42E9D183E000BFB2F5803F24D100BFFF
:101D200041693940C91BB1FA81F149098C4240F03F
:101D3000878041693940C91BB1FA81F149098C4258
:101D400040F07E8041693940C91BB1FA81F14909EF
:101D50008C4275D141693940C91BB1FA81F14909F9
:101D60008C42DDD06CE000BF81693940C91BB1FAFB
:101D700081F149098C4263D181693940C91BB1FAAB
:101D800081F149098C425BD181693940C91BB1FAA3
:101D900081F149098C4253D181693940C91BB1FA9B
:101DA00081F149098C42DFD04AE000BF80693840A8
:101DB000C01BB0FA80F04009844241D146B923E00B
:101DC00080693840C01BB0FA80F04009844237D1A6
:101DD000FEF710FDA0EB08012868B142F0D9816937
:101DE0003940C91BB1FA81F149098C42E8D116E0AA
:101DF00080693840C01BB0FA80F0400984424FF03F
:101E0000000018BFBDE8F081FEF7F4FC2868816986
:101E10003940C91BB1FA81F149098C42E8D100204F
:101E20002021286385F83D1085F83E00296C41F09B
:101E30002001296485F83C000120BDE8F08100BF45
:101E40000020BDE8F0810000F0B581B004460068D4
:101E50001D4643698FB203EA0701B94202D100204F
:101E600001B0F0BD4169164601323CD0490512D49B
:101E70007EB300BFFEF7BEFC411B2068B14203D910
:101E800041693940B9422BD141693940B942E6D064
:101E900041694905EED5016841F4007101606FF4B4
:101EA00080614161042000212022216384F83D20CB
:101EB00084F83E10226C1043206484F83C1001200A
:101EC00001B0F0BD41693940B942C8D04169490506
:101ED000E1D4FEF78FFC206841693940B942F1D066
:101EE0002020E0E741694905D5D441693940B9422C
:101EF000B5D041694905CED441693940B942AED027
:101F000041694905C7D441693940B942A7D04169FF
:101F10004905C0D441693940B942E3D19FE7000087
:101F200070B50368044653F8140F000611D40E462A
:101F3000481C29D086BB00BF1868400527D4FEF78F
:101F400059FC236853F8140F000637D518680006AB
:101F5000F2D5002070BD00BF18680006F9D41868DB
:101F6000400514D418680006F3D4186840050ED450
:101F700018680006EDD41868400508D418680006F3
:101F80004FF0000048BF70BD18684005E4D56FF4FD
:101F900080601860042012E0154603E053F8140F27
:101FA0000006D6D418684005F1D4FEF723FC401B88
:101FB0002368B042F2D958690006EFD420200021EE
:101FC0002022216384F83D2084F83E10226C1043C7
:101FD0002064012084F83C1070BD000070B586B00C
:101FE000002543F630000595CDE90355CDE90155AF
:101FF0000095C4F202000168002441F080010160F4
:102000000168C4F2020401F080010091009900957A
:102010000168002241F0010101600168042601F01D
:102020000101009100990095016841F002010160F1
:102030000068042100F00200009000982046FEF79E
:10204000D3FB012002900220CDE9030501A920461F
:102050000196FEF7F9FA06B070BD000080B540F2B7
:10206000CC0045F20041C2F20000C4F2000148F287
:10207000A06200234FF4804CC0F2010280E80E0001
:10208000C0E9033CC0E90533C0E90733FEF7B8FBFC
:10209000002808BF80BDBDE88040FEF751BA0000AF
:1020A00080B540F2201041F20001C2F20000C4F2FB
:1020B000010100234FF00C0C4FF4E16280E80E00A8
:1020C000C0E90333C0E905C3C361FFF7B7FB0028CC
:1020D00008BF80BDBDE88040FEF732BAFEE70000D1
:1020E000FEE700007047000070470000FEF722BDC9
:1020F000F0B593B007AD002428463021C4F20204A5
:10210000FEF774F9002643F640000696CDE9046612
:10211000CDE902660196C4F202000168022741F08F
:1021200080510160006800F080500190019847F2F2
:1021300000000196CFF6FE70215841F44041215035
:10214000205800F440400190019801200A9010208E
:102150000B9008200F904020CDE91007042012902A
:1021600028460797CDE90D76FEF7AEFE90B172B620
:10217000204604210122FEF737FB6420FEF750FAC7
:10218000204604210022FEF72FFB6420FEF748FAC8
:10219000EEE700BF0F20CDE90207802004904FF446
:1021A0008050CDE9050602A80121FEF77BFD98B11C
:1021B00072B600BF204604210122FEF715FB642001
:1021C000FEF72EFA204604210022FEF70DFB6420C4
:1021D000FEF726FAEEE700BF13B0F0BD4EF68850CA
:1021E000CEF20000016841F4700101607047000008
:1021F000806B0021C185FFF755B8000081B090F8D1
:102200004210222921D183680246B3F5805F09D1AB
:1022100052F8281F52F8183C002B63D003685B6803
:102220000AE000BF52F8281F13B90369002BF5D04C
:1022300003685B6803F07F030B7011680131116064
:10224000C18D01390A04C18502D001B0704700BFB9
:102250000168CA6822F02002CA60CA6822F480724B
:10226000CA604A6922F001024A61202180F84210C6
:1022700000214163026B012A3CD10163016851E8EE
:10228000031F026821F0100142E80313DBB101686B
:1022900051E8031F026821F0100142E8031393B1D3
:1022A000016851E8031F026821F0100142E803139E
:1022B0004BB1016851E8031F026821F0100142E8A8
:1022C0000313002BDAD101680A68D20606D5002272
:1022D00000920A680092496800910099818D01B0CE
:1022E000FEF7DEBF026852686FF35F2221F8022B0F
:1022F0008162A5E701B0FFF76DBB0000B0B50446F1
:10230000006804F108030ECB0569194325F4405514
:102310002A4302616269E3691143C268194349F2C1
:102320000C639A431143C1604169A26921F4407171
:1023300041F20043114340F48062C4F201039A4227
:10234000416103D1FEF774FD02E000BFFEF75CFDC2
:10235000E1694FF69C7563681922C0F6FF75B1F507
:10236000004FA0FB02011FD15A00DB0FFDF79AFFBF
:1023700048F21F51C5F2EB11A0FB01235A0905F1E8
:10238000805302FB0300322303EBC000A0FB0101DA
:102390004FF4F87000EA111000EB0210C1F3421183
:1023A000084421688860B0BD9A009B0FFDF77AFF52
:1023B00048F21F51C5F2EB11A0FB01235A0902FBA1
:1023C0000500322303EB0010A0FB0101F02000EA1E
:1023D000511000EB0210C1F34311084421688860DA
:1023E000B0BD000040F22010C2F20000FEF75CBF5A
:1023F000FEE70000FEF7ACFBFFF77AFEFFF7EEFD0D
:10240000FFF72CFEFFF74CFE0024C4F20204204626
:1024100004210122FEF7E8F94FF4FA70FEF700F903
:10242000204604210022FEF7DFF94FF4FA70FEF790
:10243000F7F8204604210122FEF7D6F94FF4FA708E
:10244000FEF7EEF8204604210022FEF7CDF900F059
:102450003FFA0020002100F02DF80120002100F0BB
:1024600029F80220002100F025F80320002100F0C7
:1024700021F80420002100F01DF80520002100F0C3
:1024800019F80620002100F015F80720002100F0BF
:1024900011F800F043FA40F28800C2F20000C11CBB
:1024A00040F22010C2F200000122FFF769FA00BFDB
:1024B000FEE70000032888BF704780B50A4640F257
:1024C0006811C2F2000101EBC0108021002A18BF80
:1024D000FF22FDF783FF80BD082998BF742801D92A
:1024E000704700BF2DE9F043A2F17F0717F15F0F9E
:1024F000C0F0AE8102EBC2024FF6803707EB8202DA
:1025000042F68017C0F60007802417FA82F84FEAD7
:10251000D10E01F0070C002B04EA011300F09C809F
:10252000BEF1010F40F0208140F26812C2F20002B9
:102530000344111802EB030E0023082406E000BF39
:1025400003330C2B04F1090400F08281C5182A061C
:102550002BD403EB430608EB0402464412F8082C84
:102560007778B67842EA072242EA064202FA0CF687
:10257000320605D0CA1892F88070374382F880700E
:1025800016F47F4F07D00EEB030292F8807047EAF3
:10259000162782F8807016F47F0F06D0CA1892F8BA
:1025A000807147EA164682F880616A1C120626D4BA
:1025B00003EB43024244B2F80360527946EA024216
:1025C00002FA0CF6320605D0CA1892F88170374329
:1025D00082F8817016F47F4F07D00EEB030292F859
:1025E000817047EA162782F8817016F47F0F06D0B3
:1025F000CA1892F8817147EA164682F88161AA1CCE
:1026000012069DD403EB43024244D28818F80450CA
:1026100042EA054202FA0CF52A0605D0CA1892F8D9
:1026200082602E4382F8826015F47F4F07D00EEB54
:10263000030292F8826046EA152682F8826015F459
:102640007F0F3FF47DAFCA1892F8826146EA1545C4
:1026500082F8825174E700BFC11840F26813C2F2D9
:10266000000303EB01090023052405E002330C2BD2
:1026700004F1060400F0EC80C618350603EB4305B0
:1026800038D408EB040708EB050217F8057C5178ED
:10269000927847EA012141EA024101FA0CF7390632
:1026A00004D019F80310B94309F8031017F47F4F49
:1026B00007D009EB030191F8802022EA172281F864
:1026C000802017F47F0F07D009EB030191F8002158
:1026D00022EA174281F80021BEF1010F0AD0B7F1BA
:1026E000807F07D309EB030191F8802122EA17626A
:1026F00081F88021711C0906B8D408EB0501B1F8F6
:10270000031018F8042041EA024101FA0CF52906E9
:1027100004D009EB03014A78AA434A7015F47F4FAD
:1027200007D009EB030191F8812022EA152281F8F4
:10273000812015F47F0F07D009EB030191F80121E7
:1027400022EA154281F80121BEF1010F8ED0B5F1C8
:10275000807FFFF48BAF09EB030191F8812122EA1E
:10276000156281F8812181E740F26812C118C2F236
:10277000000211440023052405E000BF02330C2BA6
:1027800004F1060464D0C61832062FD403EB4307C5
:1027900008EB0402474412F8052C7D78BF7842EA22
:1027A000052242EA074202FA0CF73A0602D0CA5C56
:1027B0003A43CA5417F47F4F06D0CA1892F8805093
:1027C00045EA172582F8805017F47F0F06D0CA1803
:1027D00092F8005145EA174582F800513F0E05D0A6
:1027E000CA1892F880512F4382F88071721C120629
:1027F000C4D403EB43024244B2F8032018F8047037
:1028000042EA074202FA0CF73A0603D0CA18567891
:102810003E43567017F47F4F06D0CA1892F8816075
:1028200046EA172682F8816017F47F0F06D0CA188F
:1028300092F8016146EA174682F801613F0E9DD089
:10284000CA1892F88161374382F8817196E700BF18
:10285000BDE8F04370470000082988BF7047F0B515
:1028600081B0154682B3074606981C460E4620B92D
:1028700019E000BF1836002701352A780A2AF9D056
:1028800012B3F8B2752804D31836F0B208281BD852
:102890000027F8B2F1B22346FFF71EFE0D37EBE733
:1028A0001836002701352A780A2AF9D062B1F8B221
:1028B000742809D8F1B22346FFF70EFE0D37013513
:1028C0002A780A2AF2D1EBE701B0BDE8F040704760
:1028D00080B584B06420FDF7A3FE40F20C011B20FC
:1028E000C2F20001CDE9001040F2CC004FF0FF3CF5
:1028F000C2F20000782100220123CDF808C0FEF7C3
:1029000031F80A20FDF78CFE40F26810C2F2000098
:102910004FF40071FDF76AFD04B080BD80B584B04E
:1029200040F268114FF40070C2F20001CDE90010CE
:1029300040F2CC004FF0FF3CC2F200007821402270
:102940000123CDF808C0FEF70DF804B080BDF1EE0C
:10295000100A4FF6FF71C0F2C03120EA010040F0CA
:102960004070E1EE100A7047000000000000000017
:102970000102030406070809000000000102030425
:102980000000000000000000000000000000000047
:102990000000000000000000000000000000000037
:1029A0000000000000000000000000000000000027
:1029B000000000C07F0EC07F0EC07F0E0000000030
:1029C0000000000000000000000000000000000007
:1029D00000F00300F00300F00300000000F003002B
:1029E000F00300F003000000000000000000000001
:1029F000CC0000CC00C0FF0FC0FF0FC0FF0F00CC09
:102A000000C0FF0FC0FF0FC0FF0F00CC0000CC00C4
:102A1000000000000F0C801F0CC03F0CC0307CC0B9
:102A2000307CF8307CF8300CF8300CC0F00FC0E08F
:102A300007C0C003000000000303808703C0CF036A
:102A4000C0EC01C0FF0380FF0700FF0F00DE0C0099
:102A5000CF0F00870700030300000000CF0380FFB3
:102A600007C0FF0FC0300CC0300CC0300EC03F0795
:102A7000809F0700CF0F00C00C004008000000003E
:102A80000000000000000000000000F00300F00360
:102A900000F0030000000000000000000000000043
:102AA000000000000000000000000000000000F036
:102AB000FF3FF8FF7FFCFFFF0C00C0040080000018
:102AC0000000000000000000000000000004008082
:102AD0000C00C0FCFFFFF8FF7FF0FF3F000000008C
:102AE0000000000000000000000000003000003185
:102AF0000200330300B70300FE0100FC0000FE01EA
:102B000000B7030033030031020030000000000072
:102B1000300000300000300000300000FF0300FFF4
:102B20000300FF03003000003000003000003000E0
:102B30000000000000000000000000200000300045
:102B4000003E00001E00000E00000000000000001B
:102B500000000000000000003800003800003800CD
:102B6000003800003800003800003800003800004D
:102B700038000038000038000000000000000000AD
:102B80000000000000000000000E00000E00000E1B
:102B90000000000000000000000000000000000035
:102BA000003000003C00003F00C00F00F00300FCBC
:102BB00000003F00C00F00F00300F00000300000F4
:102BC00000000000FF0380FF07C0FF0FC0C00CC063
:102BD000600CC0300CC0180CC00C0CC0FF0F80FF84
:102BE0000700FF03000000000000000000000800D4
:102BF000000C00000E0000070080FF0FC0FF0FC098
:102C0000FF0F000000000000000000C00008C0002E
:102C10000CC0000EC0000FC0800FC0C00DC0E00C83
:102C2000C0700CC03F0C801F0C000F0C000000C0D7
:102C3000000CC0000CC0000CC0000CC0300CC03038
:102C40000CC0300CC0300CC0FF0F80FF0700CF035A
:102C500000000000800000C00000E00000F0000064
:102C6000F80000DC0000CE0000C70080FF0FC0FFAE
:102C70000FC0FF0F000000C00F0CC00F0CC00F0CE6
:102C8000C00C0CC00C0CC00C0CC00C0CC00C0CC04C
:102C9000FC0FC0F807C0F00300000000FF0380FF36
:102CA00007C0FF0FC00C0CC00C0CC00C0CC00C0CEF
:102CB000C00C0CC0FC0F00F80700F003000000C0BF
:102CC0000000C00000C00000C00000C0C00FC0E095
:102CD0000FC0F00FC03800C01F00C00F00C00700B9
:102CE00000000000CF0380FF07C0FF0FC0300CC002
:102CF000300CC0300CC0300CC0300CC0FF0F80FF57
:102D00000700CF03000000003F00807F00C0FF0CE1
:102D1000C0C00CC0C00CC0C00CC0C00CC0C00CC037
:102D2000FF0F80FF0700FF0300000000000000000D
:102D300000000000000000001C0E001C0E001C0E15
:102D40000000000000000000000000000000000083
:102D50000000000000000020000030001C3E001CAD
:102D60001E001C0E0000000000000000000000001B
:102D700000000000300000780000FC0000CE0100E0
:102D80008703800307C0010EE0001C70003830008C
:102D90003010002000000000CE0100CE0100CE0166
:102DA00000CE0100CE0100CE0100CE0100CE010018
:102DB000CE0100CE0100CE01000000100020300046
:102DC00030700038E0001CC0010E8003070087034C
:102DD00000CE0100FC00007800003000000000C0C0
:102DE0000000C00000C00000C00000C0400EC06075
:102DF0000EC0700EC03800C01F00800F000007001A
:102E000000000000FE0700FF0F80FF1FC0F138C068
:102E1000F831C0FC33C00C33C00D3380FF3300FFEA
:102E20000100FE0000000000FF0F80FF0FC0FF0F39
:102E3000C0C000C0C000C0C000C0C000C0C000C052
:102E4000FF0F80FF0F00FF0F000000C0FF0FC0FF4B
:102E50000FC0FF0FC0300CC0300CC0300CC0300CA5
:102E6000C0300CC0FF0F80FF0700CF030000000040
:102E7000FF0380FF07C0FF0FC0000CC0000CC000A4
:102E80000CC0000CC0000CC0000CC0000CC0000C3A
:102E9000000000C0FF0FC0FF0FC0FF0FC0000CC03C
:102EA000000CC0000CC0000CC0000CC0FF0F80FF65
:102EB0000700FF03000000C0FF0FC0FF0FC0FF0F9F
:102EC000C0300CC0300CC0300CC0300CC0000CC086
:102ED000000CC0000CC0000C000000C0FF0FC0FFC1
:102EE0000FC0FF0FC03000C03000C03000C0300045
:102EF000C00000C00000C00000C0000000000000D2
:102F0000FF0380FF07C0FF0FC0000CC0000CC00013
:102F10000CC0300CC0300CC0F00FC0F00FC0F00F70
:102F2000000000C0FF0FC0FF0FC0FF0F0030000007
:102F30003000003000003000003000C0FF0FC0FF44
:102F40000FC0FF0F000000000000000000000000A4
:102F5000C0000CC0FF0FC0FF0FC0FF0FC0000C006F
:102F6000000000000000000000000000000200005F
:102F70000600000E00000C00000C00000C00000C0D
:102F800000000CC0FF0FC0FF07C0FF03000000C01F
:102F9000FF0FC0FF0FC0FF0F00780000FC0000CE45
:102FA00001008703800307C0010EC0000C40000829
:102FB000000000C0FF0FC0FF0FC0FF0F00000C009B
:102FC000000C00000C00000C00000C00000C0000C5
:102FD0000C00000C000000C0FF0FC0FF0F80FF0FAF
:102FE000000700000E00001C00000E00000700801B
:102FF000FF0FC0FF0FC0FF0F000000C0FF0FC0FF9A
:103000000FC0FF0F000E00001C0000380000700011
:1030100000E000C0FF0FC0FF0FC0FF0F0000000066
:10302000FF0380FF07C0FF0FC0000CC0000CC000F2
:103030000CC0000CC0000CC0FF0F80FF0700FF0396
:10304000000000C0FF0FC0FF0FC0FF0FC0C000C0D6
:10305000C000C0C000C0C000C0C000C0FF00807F72
:1030600000003F0000000000FF0380FF07C0FF0FCB
:10307000C0000CC0000CC0000DC0000BC00007C099
:10308000FF0E80FF0D00FF0B000000C0FF0FC0FF10
:103090000FC0FF0FC0C000C0C000C0C001C0C0034F
:1030A000C0C007C0FF0E807F0C003F08000000007A
:1030B0000F0C801F0CC03F0CC0300CC0300CC03057
:1030C0000CC0300CC0300CC0F00FC0E007C0C00313
:1030D000000000C00000C00000C00000C00000C030
:1030E000FF0FC0FF0FC0FF0FC00000C00000C000F6
:1030F00000C00000000000C0FF03C0FF07C0FF0FBA
:1031000000000C00000C00000C00000C00000CC0C3
:10311000FF0FC0FF07C0FF03000000C00300C01F77
:1031200000C0FF0000FC0300E00F00000F00E00FF4
:1031300000FC03C0FF00C01F00C00300000000C06F
:10314000FF0FC0FF0FC0FF0700800300C00100E0B9
:103150000000C001008003C0FF07C0FF0FC0FF0FC9
:10316000000000C0010EC0030FC0870F00CE010099
:10317000FC0000780000FC0000CE01C0870FC003F7
:103180000FC0010E000000C00300C00700C00F0008
:10319000001C0000F80F00F00F00F80F001C00C02A
:1031A0000F00C00700C00300000000C0000FC08077
:1031B0000FC0C00FC0E00CC0700CC0380CC01C0C9D
:1031C000C00E0CC0070CC0030CC0010C00000000B6
:1031D0000000000000000000000000FCFFFFFCFFFA
:1031E000FFFCFFFF0C00C00C00C00000000000004E
:1031F000000000300000F00000F00300C00F0000ED
:103200003F0000FC0000F00300C00F00003F000082
:103210003C0000300000000000000000000C00C076
:103220000C00C0FCFFFFFCFFFFFCFFFF00000000E4
:10323000000000000000000000000000010080010C
:1032400000C00100E00000700000380000700000C5
:10325000E00000C00100800100000100000000004B
:10326000007000007000007000007000007000002E
:1032700070000070000070000070000070000070AE
:10328000000000000000000000100000300000708E
:103290000000E00000C0010080010000010000000B
:1032A0000000000000000000000300800700CC0FB9
:1032B00000CC0C00CC0C00CC0C00CC0C00CC0C00D6
:1032C000FC0F00F80F00F00F000000F0FF0FF0FF00
:1032D0000FF0FF0F000C0C000C0C000C0C000C0C81
:1032E000000C0C00FC0F00F80700F00300000000C9
:1032F000F00300F80700FC0F000C0C000C0C000C95
:103300000C000C0C000C0C000C0C000C0C000C0C39
:1033100000000000F00300F80700FC0F000C0C0098
:103320000C0C000C0C000C0C000C0CF0FF0FF0FF50
:103330000FF0FF0F00000000F00300F80700FC0F83
:1033400000CC0C00CC0C00CC0C00CC0C00CC0C0045
:10335000FC0C00F80000F00000000000000000007D
:1033600000C0FF0FE0FF0FF0FF0F300C00300C002B
:1033700030000030000000000000000000000000ED
:10338000F00300F80700FC0F000CCC000CCC000C84
:10339000CC000CCC000CCC00FCFF00FC7F00FC3F00
:1033A000000000F0FF0FF0FF0FF0FF0F000C000017
:1033B0000C00000C00000C00000C0000FC0F00F8DA
:1033C0000F00F00F000000000000000000000000EF
:1033D000000C00E0FC0FE0FC0FE0FC0F0000000020
:1033E00000000000000000000000000000000000DD
:1033F00000000080000CC0E0FCFFE0FC7FE0FC3F30
:1034000000000000000000000000000000000000BC
:103410000000F0FF0FF0FF0FF0FF0F00E00100F0E1
:1034200003003807001C0E000C0C0004080000000C
:10343000000000000000000000F0FF03F0FF07F0B4
:10344000FF0F00000C00000C00000C00000C00003E
:103450000000000000000000FC0F00FC0F00FC0F4B
:10346000000C0000FC0300F80300FC03000C00004B
:10347000FC0F00F80F00F00F00000000FC0F00FC34
:103480000F00FC0F000C00000C00000C00000C00F2
:10349000000C0000FC0F00F80F00F00F000000000F
:1034A000F00300F80700FC0F000C0C000C0C000CE3
:1034B0000C000C0C000C0C00FC0F00F80700F003D3
:1034C00000000000FCFF00FCFF00FCFF000C0C00F3
:1034D0000C0C000C0C000C0C000C0C00FC0F00F889
:1034E0000700F00300000000F00300F80700FC0FE5
:1034F000000C0C000C0C000C0C000C0C000C0C0054
:10350000FCFF00FCFF00FCFF00000000FC0F00FCC3
:103510000F00FC0F003800001C00000C00000C0025
:10352000000C00000C00000C00000C00000000006B
:10353000300C00780C00FC0C00CC0C00CC0C00CC47
:103540000C00CC0C00CC0C00CC0F008C07000C0342
:10355000000000000000000C00000C00F0FF03F071
:10356000FF07F0FF0F000C0C000C0C00000C00001B
:103570000C00000000000000FC0300FC0700FC0F32
:1035800000000C00000C00000C00000C00000C00FF
:10359000FC0F00FC0F00FC0F000000001C00007C72
:1035A0000000FC0100E00700800F00000E00800F0B
:1035B00000E00700FC01007C00001C00000000008F
:1035C000FC0F00FC0F00FC0700800300C00100E0BE
:1035D0000000C00100800300FC0700FC0F00FC0F8E
:1035E000000000000408000C0C001C0E003807004E
:1035F000F00300E00100F003003807001C0E000C8F
:103600000C00040800000000FC0300FC0700FC0F95
:103610000000CC0000CC0000CC0000CC0000CC00AE
:10362000FCFF00FC7F00FC3F000000000C0C000CC5
:103630000E000C0F008C0F00CC0D00EC0C007C0C6D
:10364000003C0C001C0C000C0C00040C00000000E2
:103650000000000000003000003000F0FF3FF8FFE5
:103660007FFCCFFF0C00C0040080000000000000C1
:10367000000000000000000000000000000000FF4B
:10368000FFFFFFFFFFFFFFFF000000000000000042
:1036900000000000000000000000000000040080A6
:1036A0000C00C0FCCFFFF8FF7FF0FF3F00300000B0
:1036B000300000000000000000000000C00000E03A
:1036C0000000F00000300000700000F00000E0009A
:1036D00000C00000F000007000003000003700085B
:1036E0000000002028000000FC0100082837000826
:1036F00028000020480900001C020008000000000B
:1037000001000000100000000024F400AE00104092
:1037100081CFA1C8A6A81FD300D580D9F1DA02DBDA
:083720004020008D14A4AF004D
:040000050800019955
:00000001FF
